:040000008A11FD2F35
:100E30008030831603139F00C830831203139F0072
:100E40001F140800831203132008A200A20DA20D94
:100E5000A20D1F082206C73922069F001F151F1961
:100E6000322F332F2F2F1E08A100831603131E08C5
:100E700083120313A00008008316031307108710C2
:100E800007118711071287120713871383120313A1
:100E9000071087100711871107128712071387138E
:100EA0008A1118278A11023083120313A000003020
:100EB000A1008A1122278A11831203132108A4009A
:100EC0002008A30003302402FC3003192302031C72
:100ED0006A2F6B2F742F07148714071587150716B1
:100EE000871607178717532F033024026B30031917
:100EF0002302031C7C2F7D2F862F071487140715D0
:100F000087150716871607178713532F02302402F9
:100F1000DA3003192302031C8E2F8F2F982F07140A
:100F20008714071587150716871607138713532F7E
:100F300002302402493003192302031CA02FA12FE1
:100F4000AA2F07148714071587150716871207138A
:100F50008713532F01302402B83003192302031CD6
:100F6000B22FB32FBC2F071487140715871507124C
:100F7000871207138713532F0130240227300319D8
:100F80002302031CC42FC52FCE2F07148714071567
:100F900087110712871207138713532F003024027B
:100FA000963003192302031CD62FD72FE02F0714E6
:100FB0008714071187110712871207138713532FFE
:100FC00000302402143003192302031CE82FE92FF8
:100FD000F22F0714871007118711071287120713C2
:100FE0008713532F071087100711871107128712D5
:100FF00007138713532F8A11002883018A113C2F6E
:02400E003A3F37
:00000001FF
