:020000000D28C9
:10000800AE00030E83128C000A088D002F088E00A4
:1000180010290E282621A1002721A2008301B42837
:100028001428AF0000308A002F0882071A282029D8
:1000380083129901921F212822282F288F099009BD
:10004800910992098F0A0319900A0319910A031951
:10005800920A01309900961F3228332840289309C4
:10006800940995099609930A0319940A0319950A9C
:100078000319960A0130990600309D0000309C0053
:1000880000309B0000309A001208110410040F047D
:1000980003194F2850289B28013098005E2801300A
:1000A800970003108F0D900D910D920D970B552809
:1000B80001309807921F6128622853280130970061
:1000C80003109A0D9B0D9C0D9D0D970B642812082B
:1000D8001602031D792811081502031D7928100836
:1000E8001402031D79280F081302031C7C287D289D
:1000F8008C280F0893021008031C100F9402110893
:10010800031C110F95021208031C120F96021A14F1
:1001180001300310920C910C900C8F0CFF3E031DC4
:100128008D2801309802031D9A289B2862281908F7
:1001380003199F28A028AB289A099B099C099D09A7
:100148009A0A03199B0A03199C0A03199D0A1D0898
:1001580092001C0891001B0890001A088F000800E4
:1001680001308312A300EF3083168605073083120F
:10017800A200FF30A100EC28FF30A2072208013EB0
:100188009E009E0A01309F000030A000CE28031078
:100198009F0DA00D9E0BCB2803109F0DA00D0310E3
:1001A8009F0DA00D1F088F00200890000030901BA5
:1001B800FF3091009200FF309600FF309500F93033
:1001C8009400BC3093001C2083120F08003CA1004F
:1001D800A11FEF28F028F428A21FF328F428C0282C
:1001E800831681128312220A031DFB28FC28FF288C
:1001F80083168115072983168111F830810583122A
:10020800220883168104831221088100EF308605B5
:100218008B178B160E290D280B1D13291429172946
:10022800230815200B1183120E080D088A000C0EE6
:100238008300AE0E2E0E09001030831286062108A8
:0802480081000800FF340734B7
:02400E00F23F7F
:00000001FF
