:400000000010002011000000B5020000B502000010B500F075FB00F055F9C04610B51B4C12232360182000F0EBFA80225200184B1A60184B1849196018490A601849196004
:4000400018490A60184A1A60FE210902174A1160174A1A6080214901164A1160164A1A600022164B1A604132154B1A600232154B1A60013A144B1A60023A144B1A600432B5
:40008000134B1A601123236010BDC04630001040040301400000014041FF00800C03014043FF00800803014042FF00800003014040FF00801003014044FF00802800034071
:4000C000180101401401014010010140080101400401014010B572B61C4A1D4B1A601D4A1D4B1A60802212051C4B1A601C4A1D4B1A60DE221C4B1A601C4A1D4B1A604F2274
:400100001C4B1A6096321C4B1A601C4A1C4B1A6078221C4B1A6087321B4B1A601B4A1C4B1A6072221B4B1A601B4A1C4B1A6002221B4B1A6004321B4B1A6008321A4B1A60A7
:40014000FFF76CFF00F0A6F810BDC046666600060000024008686606000102400002024099EE0000000302400000044000204300080004401800044000010440860140001F
:40018000080104401801044000020440B66D5B000802044000030440B16DDB000803044018030440080404401804044010B5064C2378002B07D1054B002B02D0044800E0B7
:4001C00000BF0123237010BD080100200000000098290000084B10B5002B03D00749084800E000BF07480368002B00D110BD064B002BFBD09847F9E7000000000C010020C7
:4002000098290000800000200000000010B562B600F0B0F802F0D8F9FF2002F0E5F900F0DBFAFF2000F0E8FA00F058FBFF2000F065FB00F085FB00F079FC00F051FD00209B
:4002400002F052F996246400200000F059F9012002F04AF9200000F053F9F0E70B4B1B68002803D080221206134301E05B005B08064A1360064B1B68002802D0202213438C
:4002800001E020229343024A13607047002002402800034010B580225201044B1A601122034B1A600120FFF7D9FF10BD94020B40C0020B4010B502F031FB03680C2B00D184
:4002C000FEE7FEE770B50F4E0F4D13E029686B68AC68002202E001C901C30432A242FAD1E868002202E0002102C304328242FAD11035013E002EE9D102F016FBFFF786FF8B
:40030000FEE7C046010000002C2C000010B500230AE0032B03D89A000849505800E008489900084A885001331F2BF2D9FFF7D2FE80229205044B1A6010BDC0460000000034
:40034000B50200000000002008ED00E010B500F075F810BD10B500F01DF810BD10B5044A1368802109060B431360FFF7EFFF10BD0000094010B5064B1B78002B04D1FFF7B3
:40038000E9FF0122024B1A70FFF7E8FF10BDC04624010020154A164B1A600023154A13601549164A1160164A16490A6007201649086016490B6006381549086015490A605B
:4003C000154A13600421154A1160154A1360154A1360154A1360154A1360154A1360154A13601268144B1A807047C0460B000002000009404000094001000A00480009409F
:400400000700008000030940040309401003094044000940000209400402094050000940880E0940C80E0940480F0940080F0940C80F0940880F09402601002005490B6877
:40044000F0229343603A13430B60034B1A88034B1A6070470003024026010020880F09400C4B1B689B001C22134018330A4A1268920803210A40D34008490868084A0240CF
:400480000A60084A944663441B78DBB2064A13607047C046080F03402800034000000740FFFFFFBFCDF1FF0F0C0F0340034B18688023DB05184000D00120704700000740D5
:4004C0001F2318401E3B8340014A13607047C04600E100E01F2318401E3B8340014A13607047C04680E100E01F2318401E3B8340014A13607047C04680E200E001BE7047AF
:4005000010B5040006E0084B586802F07DF8074B9C46644480231B029C42F4D8024B9868604302F071F810BD840000200080FFFF70B582B000F0DAF800284DD002F06DF85D
:400540000500264B1A6892001C231A401832244B1B689B0803210B40DA400021214B1960214C2168214B0B4021494A438021C9018C466244D20B013A5205520D1343A0227D
:400580005203134323601B4B1B680193302002F04BF8194A13688021C9050B4313602668164B1E40002407E00120FFF7A9FF1034A30533430C4A1360EE2CF5D90120FFF7BC
:4005C0009FFFFF239B051E43074B1E60019A094B1A60280002F025F802B070BD080F0340280003400C0F03400800074000F800C040420F003000104000000740FFFF3FC06C
:40060000F0B583B0040018280BD01C2809D0202807D0242805D0282803D02C2801D0302849D101F0FAFF0190FFF740FF002803D0FFF716FF012600E00026214A13680721BB
:400640008B4313601F4BE3181B78DBB21E4A13601E4A13688B4313601D4803687F22934319001C4BE3181B7813400B430360322001F0CAFF182C16D9114F3B680725AB4300
:400680001A0023001C3B9B082B4013433B60322001F0BAFF3A68AA432300183B9B082C001C4014433C60012E01D1FFF741FF019801F0B7FF02E00020FFF720FF03B0F0BD9A
:4006C000080F0340CDF1FF0F0C0F0340100F0340180F0340B4F1FF0F10B5034B1B7B584301F092FF10BDC04684000020034B1B68002B01DA012000E00020704700000740C4
:40070000014A024B1A6070476588EDAC380003400004000C014B18607047C046480106400004000C014B18607047C046540106400004000C014B18607047C0464C0106407F
:4007400070B504000D0001F068FFAC40024B1C6001F067FF70BDC0460800064010B501F05CFF064A116802230B43136001F059FF18210220FFF7E4FF10BDC0460000064008
:40078000014B18607047C0467801064010B50E4C8023DB042360236823600020FFF7B8FF236823600C22094B1A600120FFF7E8FF3122074B1A60074C2000FFF7B1FF20009A
:4007C000FFF7B6FF10BDC046400106406401064068010640FFFF000010B5064B1B78002B04D1FFF7D3FF0122024B1A70FFF7B6FF10BDC04628010020044B1B68002BFBDB97
:400800000002034B1843014B1860704700000140420000800004000C014B18607047C046880106400004000C014B18607047C046940106400004000C014B18607047C04632
:400840008C01064070B504000D0001F0E6FEAC40024B1C6001F0E5FE70BDC0460800064010B501F0DAFE064A116804230B43136001F0D7FE18210420FFF7E4FF10BDC04682
:4008800000000640014B18607047C046B801064010B50E4C8023DB042360236823600020FFF7B8FF236823600C22094B1A600120FFF7E8FF3122074B1A60074C2000FFF7E3
:4008C000B1FF2000FFF7B6FF10BDC04680010640A4010640A8010640FFFF000010B5064B1B78002B04D1FFF7D3FF0122024B1A70FFF7B6FF10BDC04629010020044B1B6806
:40090000002BFBDB0002034B1843014B18607047000001404300008010B5084B1B78002B06D100F073F800F0AFF80122034B1A7000F02AF800F052FC10BDC0462A01002084
:4009400070B5FFF7E9FF051E02D100F019FB0500002D02D100F0C4F90500002D02D00BE0013C00E0074C00F065F9002801D0002CF6D1002C00D1102500F090F800F0D6F8C7
:40098000280070BD404B4C0070B5002309E01D491A1D92008818002444600120404250500133002BF3D0184C042327E06668A27E144B5B1900211976012A04D0002A1BD0C7
:4009C000032A08D918E02069002815D0F179228B01F0D9FF10E02369002B01D0F2791A706168002306E01A00083252000120404250520133002BF6D028342B005D1E002BFF
:400A0000D4D170BD60010020A429000070B5194CBC220021200001F0B6FF174B238090231B016380154BA3800823A3830322B233E254B93BA377E377200020303F321049DA
:400A4000283101F097FF0F490C00083404230CE0A268238B04E00B78537201310A320300581E002BF7D128342B005D1E002BEFD170BDC04660010020F0700000B80B000061
:400A80001C2A00009C2900000023024AD380024A13607047600100203C0100207047C046FF231940062902D08318002119715300195AC31859808218002313727047C0461D
:400AC00070B506000D00012305E0220029003000FFF7E6FF23005C1E002BF6D170BDC04670B5074D86003218D4002C19A0688A0051184A008018A17EFFF7E2FF70BDC04635
:400B0000A429000070B5050082001218D300064AD3181B8B04E021002800FFF7E1FF23005C1E002BF7D170BDA429000010B5042303E02000FFF7E6FF23005C1E002BF8D176
:400B400010BDC04670B504000D009F2808D91B4B994205D91A49280001F0DAFE002921D09F2C09D9FF235B009D4205D91549280001F0CEFE002917D09F2C07D97E2D05D9C9
:400B80007F21280001F0C4FE00290FD09F2C0FD93E2D0FD93F21280001F0BAFE00290BD000200AE0042008E0032006E0022004E0002002E0002000E0012070BDFE03000001
:400BC000FF030000FF01000010B54B1EDBB2032B01D8102300E00023002911D0002B11D0642253430100180001F00CFE002301E0013340000928FBD90A2804D9013B02E00B
:400C0000002300E00023D8B210BDC04670B50D000C8801F029FC06002100FFF793FF040001003000FFF7D0FF0001C0B22043A87370BDC046024BDB68802018407047C04643
:400C40006001002010B5164BDB68DB030DD403280DD8430904339B00114A9B581F220240D340DB0705D4012404E0112402E0012400E00024002C11D182001218D300094AD5
:400C8000D318DB7E012B04D0022B05D101F0B6FB04E000F057FE01E001246442200010BD60010020A429000010B50B4BDB68DB030DD40A4B1B78012B05D0022B09D101F03D
:400CC00091FA002007E000F091FD002003E0112001E00120404210BD600100204001002010B50F4BDB681B0618D400240120404211E02000FFF7A6FF00280BD1022C03D88E
:400D00000122084B5A7002E00022064B5A70FFF7CBFF04E00134032CEBD900E0112010BD6001002040010020F8B5160083001818C300364A9C58CB00591A8B00E418002531
:400D400061E001F06AFC21680B68277E0F22BA4093430B6061680B68A77E0722BA4093430B6001F05EFC052E4BD8B300284AD3589F4601F052FC62681168A77E0623BB4068
:400D80000B431360A1680B68677E0122BA4093430B6001F046FC34E001F03FFCA1680B68677E0122BA4093430B6001F03AFC28E0200000F001FD24E001F02FFC2268116821
:400DC000277E0423BB400B43136062681168A77E0623BB400B43136001F023FC11E001F01CFC22681168277E0623BB400B43136061680B68A77E0722BA4093430B6001F0D1
:400E000010FC1C340135002D9BD0F8BDA4290000BC2B0000F8B54F464646C0B401280BD0022804D0002399460633984607E0052399460023984602E0002399469846144CB1
:400E400000251FE001F0E9FB2268136821698B43136066683268A77E0721B9408A434146B9400A433260227E494691400B4322681360A268136861698B43136001F0D1FB37
:400E80001C3401350A2DDDD90CBC90469946F8BD882A000010B51B4A93780133DBB293709078C0B2FFF7CEFE041E09D1154B9B78032B02D10022134B5A70FFF7F5FE1EE005
:400EC000104B9B78032B11D10F4B1A8901321A81DA6880218A43DA60DA681202120ADA60DA6804061443DC60002408E0064AD3681B021B0AD360D16803060B43D360002C39
:400F0000C9D110BD400100206001002010B501F0DDFA10BD074A084B1A6001380002074B1860054B1B68002BFBDB054A024B1A607047C0464000004000000140000301403F
:400F400040FF008070B50400032801D8002000E00120002811D1A2001219D300074AD318DD7E022D03D12821200001F07FF8012D03D15521200000F003FE70BDA4290000CC
:400F800070B50024002504E02000FFF7DBFF05430134032CF8D9280070BDC04683001818C300024AD3185B6898897047A42900000203121A01238B40013B9A4205D90202E8
:400FC000101A834203D3052002E0062000E00020C0B2704770B50E00FFF7E0FF05003188002200F01BFB01002800FFF7ABFD041E04D168003188FFF7DBFF040021002800EC
:40100000FFF7E2FD0001C0B22043B07370BDC04610B5002413E0A2001219D300094AD3185968DB7E012B02D0022B04D006E02000FFF7D0FF02E02000FFF7E8FD0134032CD0
:40104000E9D910BDA4290000F0B55F4656464D464446F0B483B001902A4E34682A4B1C4000942A4F3B680E2292461A409146284C2568284B1D40AB4601F0CFFA3368264A54
:4010800090461340336001F0CCFA01F0C6FA3B68524693433B6001F0C4FA01F0BEFA23681E4D2B40DB2212011343236001F0B9FA6B469888FFF710FB01F0AFFA23681D40C6
:4010C0005A461543256001F0ACFA01F0A6FA3B68524693434A4613433B6001F0A2FA01F09CFA336842461A401400009B1C43346001F097FA03B03CBC90469946A246AB46CB
:40110000F0BDC04600040240F0FF00000004044008040440F80F00000F00FFFF07F0FFFF70B505000E00140001F077FA2B685C4034405C402C6001F074FA70BD10B5064A0C
:40114000136801218B4313600022EF310348FFF7E7FF00F0E5FB10BDA8020B400004024010B5084C0022F02109012000FFF7D8FF0022F02109022000FFF7D2FF01F02CF9D2
:4011800010BDC0460004024010B50400124B1B7883421FD0012B02D1FFF7D0FF03E0022B01D1FFF7DDFF012C05D100F06BF90122094B1A700EE0022C05D100F05DFE022278
:4011C000054B1A7006E0042C04D0032C02D00022014B1A7010BDC0464001002010B5FFF717FF0020FFF716FE0021BA23034AD1540020FFF7C9FF002010BDC0466001002041
:4012000001390843014B18607047C04600020B4010B50F4B1B68702293431C000D4B997F0D4801F0EFFA0D4B984204D820232343074A13600BE0084B984204D8302323436E
:40124000034A136003E040232343014A136010BD980000206001002000366E01001BB700034A044B1A60C5225204034B1A60704700008F01C0010B40C4010B40F0B5474617
:4012800080B482B0050082001218D300224AD3185A689C68138801279F40013F0A2902D908000A3800E000200A23984688444346642B01D9642398467843642101F0A2FAF2
:4012C000060040467843642101F09CFA010000270023019313E05300185B864208D81300814201D207E001235A1E002BF3D104E00623019301E0062301930A340137AA00E1
:401300005219D300044AD3181B8B9F42EBD3019802B004BC9046F0BDA4290000F8B54F464646C0B4070046688468B57AA84601237F200022914608E0B3185B7A994500D2A2
:401340009946984200D9180013005A1E002BF3D100210CE0A3185B7A984200D91800130000E001235A1E002BF4D10A3401313B8B9942F6D34346002B13D0132813D80D4975
:40138000EA008A1850686B1EDB00CB18596801F039FA4F4647437E2F07D8013DB572012004E0002002E0002000E000200CBC90469946F8BDD42B0000F0B55F4656464D46DC
:4013C000E0B482B007008A4643689B461B8801229A401300013B019301234AE05B465B195B7A9946BB686A00D05A4C46002208E05919497A8C4202D96800C05A0C000A332E
:401400000132397F8A42F3D364235843019901F0F9F964306043514601F0F4F9814500D381465B465B194A465A72BC6800261CE06B00185B64235843019901F0E3F96430D2
:4014400063195B7A584353464A465343984203D2631900225A7206E0C01A3230642101F0D1F9631958720A3401363B7F9E42DFD32B005D1E002BB1D102B01CBC91469A46AB
:40148000A346F0BDF8B5324BBA229A5CB821585C824206D0FFF7BEFC2D4BB822995C023299540120FFF7D0FDC0221203294B1A60294D2B68294E33432B600024284B1C60FE
:4014C000284B1C60284B1C60284B1C60284B1C60284B1C60284B1C60284F3C60284B1C606022F0212748FFF71BFE002202212648FFF716FE254A1368802149010B431360EC
:4015000080225200224B1A602B6833432B6080235B04204A13602049204A1160204A14603B60FFF79DFE0A4B987FFFF7F3FCFFF76FFE1C4B1B681C4A13431C4A13600F22AB
:401540001B4B1A601B4B1C60053A1B4B1A60F8BD6001002004020B40A8020B4001000010F4000B40B4020B40C0020B4020030B4084010B4088020B4080020B4084020B40FF
:4015800080010B40000402400004044094020B40A0020B40A4020B404112000088010B4090020B40980000200010008000000B4000030B40F0010B4010030B40F8B50700DF
:4015C000837ADB000F4A9D5801F027F80E4B1A680E4C22400E490E78BF19797A0A432A431A6001F01EF801F018F80A490B682340094A12689619727A13432B430B6001F089
:4016000010F8F8BDD42B0000C0010B4080FF3FFC042C0000C4010B402002002010B50300140001208840102900D11D38002B02D0190001F0E7F8053C012C00D840080028E6
:4016400000D1013010BDC04610B50E4B1B78DBB29A00D318DA000C4B9A18536899899B7B18045A1F012A02D8802292041043053BDBB2012B02D8490800D10131FFF7C0FDFD
:4016800010BDC04642010020A429000010B50300808919889A7BFFF7C1FF0004000C014B186010BD14030B4010B50A20FEF712FF01222C4B1A6000232B490B602B490B60FD
:4016C0002B490B6006202B490860FA302A4908602A490A6083214900294A1160294A13600322294B1A60F02300E0013B244A1268520701D4002BF8D1002B02D10822224B8F
:401700001A60832252001E4B1A600A20FEF7ECFE0A20FEF7D5FE0023174A1360134A1360134A1360134A13605021144A11604F390D4A11600B4A1360144A136880214904D4
:401740000B43136002220F4B1A60F02300E0013B0F4A1268520701D0002BF8D10D4A0A4B1A6010BD80010B408C010B40B0020B40B4020B4088020B4080020B40F0010B401D
:40178000F0000B40F8000B4040030B4000020B4000000B400103000010B5054AD36805490B43D3600A20FEF797FFFFF77DFF10BD600100208000010070B50400857E067EBD
:4017C00000F02BFF23681B680F22B24093431A000423B3401343666832680721A9408A4332602268136000F01CFF70BDF8B5224B1B78DBB29A00D318DA00204B9A185768BC
:401800001F4BBA229A5CB821585C824206D0FFF701FB1B4BB822995C02329954194C00232370154E3378DBB2144D9A00D318DA00AA1891682378DBB29A00D3185A008A1823
:40184000114B1A603800FFF7B9FE3378DBB29A00D318DA0050592278D2B2D3009A1A9300C0180A4B1860FFF7A7FF094800F02EFEFFF792FFF8BDC04642010020A429000015
:401880006001002048010020200200201C020020BD27000010B583001818C300054A9858CB00591A8B00C018034B1860FFF784FF10BDC046A42900001C020020F8B50400F1
:4018C000067E857E00F0A9FE636819680723AB40994327683B680F22B24093433B60BA220E4FBA5C002A05D10623AB4019436368196008E0022A06D10332B2401343626892
:40190000116022681360A1680B68647E0122A24093430B6000F085FEF8BDC0466001002010B5064B1B78012B06D1054B1868FFF7C5FF0022014B1A7010BDC046490100207B
:401940001C02002070B5124C82001218D300E3185D68C0B20F4E30700120FFF715FCFFF7DFFF3378DBB29A00D318DA0012590A4B1A600A4BDA687F218A43DA603178DA6802
:401980000A43DA602800FFF781FEFFF75DFE70BDA4290000420100201C0200206001002070B582001218D300134AD3185D68C9B2124C217099682378DBB29A00D3185A0073
:4019C0008A180F4B1A60FFF7BDFF2800FFF7F6FD2378DBB20B49DA00D31A98000B689C4660440860FFF7E8FE0122074B1A70074800F06CFD70BDC046A42900004801002086
:401A0000200200201C0200204901002091270000F0B5574680B484B00190840084466444E200544B9A1853689A461D000935012303E0002003AB985413005A1E002BF8D16A
:401A400053461A8801239340013B59430800642100F0D8FE06000023009371E0019B9A009C466244D300434AD3189F68009A9300944663445A00BF18012304E04023AB54A3
:401A8000B9184B7213005A1E002BF7D1402400990198FFF785FF0120FFF7D6FAFFF77CFE354B00E0013B354AD26812060DD5002BF8D101330AE05300DB5B9E4203D9A9184C
:401AC0000B78A3430B70130000E001235A1E002BF1D1640801330FE0A9180B782343DBB20B70B8184372002C05D10B78002B02D101330B70437213005A1E002BECD1002C3A
:401B0000C5D1013307E003AB9B181878A95C884200D2197013005A1E002BF4D100990198FFF73EFFFFF738FE134B00E0013B134AD268120601D5002BF8D1009B0133009378
:401B4000019B9A009C466244D3000A4AD3181B8B009A9A4282D3012305E003AB995C53469B18597213005A1E002BF6D104B004BC9246F0BDA429000000A60E0060010020E9
:401B800070B504000D0083001B18DA00174E9619174BDB68DB0324D4736804229A7229002000FFF735FF3000FFF7B8FB0028F6D129003000FFF700FC2000FFF7C3FEFFF770
:401BC00015FE0C4B00E0013B094AD268120601D5002BF8D1002B06D029002000FFF74EFB02E0112000E0102070BDC046A42900006001002000366E01F0B5474680B482B086
:401C00000500884681000918CB001F49CB189C68142A02D91000143800E0002014321700642A00D9642743465843642100F0EAFD060040467843642100F0E4FD0100002310
:401C40000193002713E05300185B864208D81300814201D207E001235A1E002BF3D104E00623019301E0062301930A340137AA005219D300044AD3181B8B9F42EBD3019879
:401C800002B004BC9046F0BDA429000083890288981E504380B2704710B5384B1B685B689A7A374B1968374B1B78CB185B7A7F210B4035490B43D200344952581343344AA4
:401CC00013600022334B5A80334A344B1A600122334B1A601123334A136080214904324A1160324A13600622314B1A60314A324B1A60324A324B1A60324A334B1A60F023EE
:401D000000E0013B304A1268D20701D5002BF8D12D4B1B68DB0703D5C22292002A4B1A602A4BD97F2A4800F06DFD2A4B984204D9274B984203D8302302E0202300E040232F
:401D4000254A1343154A1360244A254B1A60002313490B6013490B6013490B6023201349086013490B6014490B6015490B60832149001C4B1960144B1A6010BD44010020C5
:401D800020020020042C0000800E0F00D42B0000C0010B404C0100202010048000000B4080010B4080020B4084020B40C0020B4088020B4001010100B0020B401010000031
:401DC000B4020B400303000040030B406001002000366E01001BB70000100C80010300008C010B40F0000B4010B50A20FEF772FB83225200154B1A60154B1B689BB2154AF2
:401E00005380154B1B689BB25188CB189BB25380518889B213889BB2994202D913889BB253800E4B1B6898470D4BDB681B0609D40C4A0D4B1A60C02292000C4B1A600C4A3F
:401E40000C4B1A600A20FEF73BFB10BDF0000B40D0000B404C010020D4000B409C000020600100202010048000000B408C010B40800E4F01C0010B4010B5514BBA229A5C5C
:401E8000B921585C824206D0FEF7C4FF4C4BB922995C01329954832252004A4B1A600024494B1C60053AFF3A484B1A60484B1C60484B1C60484A494B1A60C0229200484B37
:401EC0001A60484A484B1A60484B1C60484A494B1A605022484B1A60484B1C60484B1C60484B1C60484B1C60484B1C6000F095FB474A1168474B0B40802149010B4313603D
:401F000000F08FFB3222444B1A6080225204434B1A6000F082FB424A1168424B0B40802149050B43136000F07CFB3F4B1C603F4B1C6023223E4B1A60143A3E4B1A600B3A7F
:401F40003D4B1A603D4B1C603D4B1C60C22292003C4B1A603C4A3D4B1A600120FFF774F800F05BFB3A4C22683A4B1340236000F058FB00F052FB2268374B1340236000F0D2
:401F800050FB00F04AFB354C2268354B1340C022D2001343236000F044FB00F03EFB2268304B1340C022D2011343236000F039FB034BD87FFEF7AEFF2B48FEF7A7FF10BDB2
:401FC00060010020F0000B40F4000B40F8000B4080010B4084010B40411F000088010B408C010B40800E4F01C0010B40C4010B40AA000500F0010B4000020B4004020B4078
:4020000080020B4084020B4088020B4090020B4094020B40FFEFFFFFA0020B40A4020B40A8020B40EEFFFEEEB0020B40B4020B40C0020B4000030B4010030B4014030B40BE
:4020400020030B4040030B402010048000000B40080404403FFEFFFFFFF1FFFF00040240FFF0FFFFFF0FFFFFE91D0000F0B55F4656464546E0B482B001908B4683008446C1
:402080006344DA003F4CA418A3689A463E4B52461A606068FFF7FAFD3C4B188018885B465843642100F0AEFB0600237F657F5D43002109E0344A0023106803801368402057
:4020C00058720A3313600131A942F3D3202440270023984600E01C000198FEF7B3FDFEF7E3FD2B4B02E0002B05D0013B294AD2681206F8D401E010239846234B52461A6031
:4021000000210EE0204B1B681A88964202D25A7ABA435A725A7A22435A720A331A4A13600131A942EED36308DBB2002C03D027004246002ACFD00198FEF784FDFEF7B4FD9C
:402140004346002B04D016E0002B07D0013B00E00F4B104AD2681206F6D401E0102398464346002B07D1094B198889B25A460198FFF742FD8046404602B01CBC90469A464B
:40218000A346F0BDA4290000200200204C01002000A60E006001002010B50400837E06229A40072199404068FEF7BAFF237E04229A400F2199402068FEF7B2FF10BDC0460A
:4021C00010B50400837E0721994000224068FEF7A7FF237E06229A400F2199402068FEF79FFF10BD10B51A4BBA229A5CB921585C824206D0FEF70EFE154BB922995C013293
:4022000099540022134B1A70134B1B68134A996811605A7F124CA2801A7FE2801968A160D300981A80000818E060FFF7B5FFA068FFF7C6FF0B4A0C4B1A60054AD1688023FE
:402240000B43D3600A20FEF747FAFFF725FD10BD600100204801002044010020200200204C010020FD2200009C00002070B5040000F0D3F92268136821698B43136000F01A
:40228000D0F900F0CAF961680B68A47E0722A2409343BA22054DAA5C002A02D10632A24013430B6000F0BDF970BDC0466001002070B5040000F0B1F92268136821698B43DD
:4022C000136000F0AEF900F0A8F961680B68A57E0722AA409343BA22074EB25C002A02D10632AA4013430B60A268136861698B43136000F096F970BD6001002010B52F4BE0
:4023000019682F4B1B782F4C228860885B00121A5A52E068FFF7AAFF2B4A13780133DBB21370A388013B9BB2A380002B0CD0254BD8681C30D860FFF72FFF204A13680A334C
:402340001360FFF7A9FC37E01E4AD388013B9BB2D380002B1DD014009068FFF7A9FFA0681C30A060FFF72CFF184B1B685A7FA2801868E0601A7FD3009A1A9300C018E060F6
:40238000FFF70AFF0D4A13680A331360FFF784FC12E00C4B9868FFF78BFF0D4B1B78002B02D0FEF777FD07E00A4B1A8901321A81DA6880218A43DA6010BDC0462002002060
:4023C000042C00004C0100204801002044010020410100206001002010B5074B1B8A002B08D0054CE068FFF741FFA068FFF760FF0023238210BDC0464C01002070B5040073
:40240000C2B2124B1A700220FEF7BEFEFFF7E4FFA3001C19E2000E4BD3180E4A13605D68AC892A880C4B1A602800FFF72FFC0B4B1880AB7B013C2405240D1B041C43084B8A
:402440001C60084BD87FFEF765FD70BD42010020A42900004401002014030B404C01002000020B406001002083001818C300024AD3185B6898897047A4290000014B986621
:402480007047C0460000002010B5040000F0C5F8044A1168044B0B40A4051C43146000F0C0F810BD08E400E0FFFF3FFF8022D200014B1A607047C04600E100E08022D20043
:4024C000014B1A607047C04680E100E010B50400FFF7F4FF2000FFF7D1FF0320FFF7D4FFFFF7E4FF10BDC04604490A68D2B220239A43400118401043086070470002044034
:402500000004000C014B18607047C046C80106400004000C014B18607047C046D40106400004000C014B18607047C046CC01064070B504000D0000F070F8AC40024B1C6068
:4025400000F06FF870BDC0460800064010B500F064F8064A116808230B43136000F061F818210820FFF7E4FF10BDC04600000640014B18607047C046F801064010B50E4C42
:402580008023DB042360236823600020FFF7B8FF236823600C22094B1A600120FFF7E8FF3122074B1A60074C2000FFF7B1FF2000FFF7B6FF10BDC046C0010640E40106402B
:4025C000E8010640FFFF000010B5064B1B78002B04D1FFF7D3FF0122024B1A70FFF7B6FF10BDC0465E010020044B1B68002BFBDB0002034B1843014B18607047000001400C
:4026000041000080000000000230800803D001300238FCD1C046C0467047EFF3108072B6704780F31088704770B50400FFF7F5FF0500102C05D8104A136803218B431360D3
:4026400016E0202C07D80C490B6803229343023A13430B600CE0302C07D807490B6803229343013A13430B6002E00020FDF746FF2800FFF7D6FF70BD30001040104B1B78CF
:40268000DBB29A00D318DA000E4B9A1853680E4A11680A04120C188801238340013B9A4206D20A4B1A680A4B1B785B00D15205E0064A1168064A127852008B527047C04643
:4026C00042010020A4290000D0000B4020020020042C000070B5274A1378DBB2264C9900CB18D900611848681378DBB29A00D318DA00A218127E013A204B1B78DBB29A421C
:4027000020D91E4C23780133DBB22370194D2B78DBB29A00D318DA00174B9A1891682378DBB29A00D3185A008A18154B1A60FEF745FF2878C0B22178C9B2FFF7ABF8FEF7D5
:40274000B3FF16E000220D4B1A700E4AD1680E4B0B40D3600D4B1B78012B02D1FEF79AFB07E0084BDA6880218A43DA601A8901321A8170BD42010020A42900004801002076
:402780002002002060010020FFFFFEFF4101002010B583225200064B1A60FFF76FFF054B1A8901321A81D968034A0A40DA6010BDF0000B40600100207FFFFEFF10B50D4B1A
:4027C0001B78DBB29A00D318DA000B4BD4580B4B1A78D2B2D1008A1A9300E41883225200074B1A60FFF74AFF2000FFF767F8FFF771FF10BD42010020A42900004801002025
:40280000F0000B40002243088B4274D303098B425FD3030A8B4244D3030B8B4228D3030C8B420DD3FF22090212BA030C8B4202D31212090265D0030B8B4219D300E0090A87
:40284000C30B8B4201D3CB03C01A5241830B8B4201D38B03C01A5241430B8B4201D34B03C01A5241030B8B4201D30B03C01A5241C30A8B4201D3CB02C01A5241830A8B42AE
:4028800001D38B02C01A5241430A8B4201D34B02C01A5241030A8B4201D30B02C01A5241CDD2C3098B4201D3CB01C01A524183098B4201D38B01C01A524143098B4201D322
:4028C0004B01C01A524103098B4201D30B01C01A5241C3088B4201D3CB00C01A524183088B4201D38B00C01A524143088B4201D34B00C01A5241411A00D201465241104630
:402900007047FFE701B5002000F006F802BDC0460029F7D076E770477047C046014B18687047C046000100200E4B70B500251E000D4CE41AA410A54204D0AB00F3589847AA
:402940000135F8E700F060F9084B00251E00084CE41AA410A54204D0AB00F35898470135F8E770BD142C0000142C0000142C00001C2C0000002310B59A4203D0CC5CC454AC
:402980000133F9E710BD03008218934202D019700133FAE770470000000000002020202020202020882A000080010020C201002000000000380100200928000001000102D9
:4029C000010100000000000000000000C02A000090010020CC01002000000000340100200128000001000102010100000000000000000000F82A0000A0010020D6010020EF
:402A000000000000300100200128000001000102010100000000000000000000302B0000B0010020E0010020000000002C01002001280000050002010500640000190000E9
:402A4000800000006400640028280A031E200200500000006400640028280A031E200200500000006400640028280A031E200200500000000C00640028280A031E200400A8
:402A800008000000FFFF00000001024008010440000104400401044000000F001000000010040C000001024008010440000104400401044000F00000080000000C03090085
:402AC000000102400801044000010440040104400000F0002000000014050F000001024008010440000104400401044000F00000080000000C0309000001024008010440C2
:402B000000010440040104400000000F40000000180612000001024008010440000104400401044000F00000080000000C0309000000024008000440000004400400044040
:402B40000F000000010000000000000000000240080004400000044004000440F0000000020000000401030000000240080004400000044004000440000F00000400000004
:402B8000080206000000024008000440000004400400044000F00000080000000C030900000002400800044000000440040004400000000F4000000018061200720D0000C3
:402BC000980D0000020E0000B00D0000B80D0000DE0D0000000000017C92000000000003F824010000004001E093040000004003C027090000008001009F240000008003D2
:402C0000003E490000430000F8B5C046F8BC08BC9E467047D50100000D030000F8B5C046F8BC08BC9E467047AD010000402C000080000020880000002001000000000000F5
:402C400000000000010000000000E02EC05D00001800000000366E0120000004FD220000000000000000000000000000000000000000000000000000000000000000000028
:402C8000052C0000000000000000000000000000000000000000000000000000000000000000000000000000000000000000000000000000000000000000000000000000E3
:402CC000A000002000000000000000000000000000000000000000000000000000000000000000000000000000000000000000000000000000000000000000000000000014
:402D00000000000000000000000000000000000000000000000000000000000000000000000000000000000000000000000000000000000000000000000000000000000093
:402D40000000000000000000000000000000000000000000000000000000000000000000000000000000000000000000000000000000000000000000000000000000000053
:402D80000000000000000000000000000000000000000000000000000000000000000000000000000000000000000000000000000000000000000000000000000000000013
:402DC00000000000000000000000000000000000000000000000000000000000000000000000000000000000000000000000000000000000000000000000000000000000D3
:0200000490303A
:02000000101ED0
:0200000490402A
:200000000000000000000000000000000000000000000000000000000000000000000000E0
:0200000490501A
:0C0000000002190111A90001190F21C70D
:0200000490600A
:0100000001FE
:00000001FF