:02000000FD2BD6
:1006C60083160710871007118711071287128312E6
:1006D6000710871007118711071287120430831637
:1006E6009100803083129F00303083169F00831262
:1006F6001F141F08E33900389F001F0CA000200CB0
:100706000739A100A2012108A3002208A4009F1412
:100716009F188E2B8F2B8B2B1E08A40083161E086A
:100726008312A30003302402FC3003192302031CA6
:100736009D2B9E2BA52B07148714071587150716C7
:1007460087167C2B03302402343003192302031C42
:10075600AD2BAE2BB52B0714871407158715071677
:1007660087127C2B023024026C3003192302031CEF
:10077600BD2BBE2BC52B071487140715871507122B
:1007860087127C2B01302402A43003192302031C98
:10079600CD2BCE2BD52B07148714071587110712DF
:1007A60087127C2B00302402DC3003192302031C41
:1007B600DD2BDE2BE52B0714871407118711071293
:1007C60087127C2B00302402783003192302031C85
:1007D600ED2BEE2BF52B0714871007118711071247
:1007E60087127C2B071087100711871107128712B3
:0807F6007C2B00288301632B1A
:02400E00943FDD
:00000001FF
