:060000000A128A11FC2F18
:100F3400080008000800F0007008831203139900E9
:100F440008000A128A119A270A128A110A128A11AF
:100F54009C270A128A110A128A119B270A128A11E3
:100F640008000C3083160313990018111812831209
:100F74000313981783160313181398168312031375
:100F84001813181608000A128A11A3270A128A11C4
:100F94008316031307130A128A11B3270A128A113C
:100FA40033300A128A119D270A128A110630F3007F
:100FB4001330F200AD30F100F10BDE2FF20BDE2F17
:100FC400F30BDE2FE52F99300A128A119D270A129E
:100FD4008A110630F3001330F200AD30F100F10B4A
:100FE400F12FF20BF12FF30BF12FF82FD22F0A125E
:0C0FF4008A11002883010A128A11C52FFF
:04400E00D220FF3F7E
:00000001FF
