:040000008A11FD2F35
:100EA400080008008A1152278A118A1153278A11CF
:100EB40008003E30831603139200831203139B0130
:100EC40083160313871003308312031392000C302C
:100ED4009D00910112150800831203132008A2003B
:100EE400A20DA20DA20D1F082206C73922069F00DB
:100EF4001F151F197E2F7F2F7B2F1E08A10083161D
:100F040003131E0883120313A000080083120313A3
:100F1400A401A501201C8F2F902F962F2208A4072F
:100F24000318A50A2308A50701300310A20DA30D79
:100F3400FF3E031D972F01300310A10CA00CFF3EB0
:100F4400031D9E2F20082104031DA92FAA2F8C2FD7
:100F54002508A1002408A000080083120313270811
:100F6400A1002608A0003C30A2000030A3008A1192
:100F740088278A11831203132008A8002108A900D6
:100F84002908A800A9012808AA002908AB002B08F1
:100F9400A9002A08A8000310A90CA80C0310A90C86
:100FA400A80C28089B0008008A1154278A11803055
:100FB400831603139F00C830831203139F001F146A
:100FC4008A115B278A11003083120313A000A10049
:100FD4008A116E278A11831203132108AD00200899
:100FE400AC002D08A7002C08A6008A11AF278A118F
:0C0FF400E52F8A11002883018A11D62FF6
:02400E003A3F37
:00000001FF
