:060000000A128A11FC2F18
:100F5A00F3007308F200F20DF20D831203131F0857
:100F6A007206C33972069F009F149F18BD2FBE2FA9
:100F7A00BA2F1E08F100831603131E08F00008009A
:100F8A0001308316031788008901831603139F0112
:100F9A009F17831203131F083F3980389F001F14BD
:100FAA008316031305148601FC30870000300A12E9
:100FBA008A11AD270A128A117108F8007008F70021
:100FCA007708831203138600780887000430F60036
:100FDA002C30F500AB30F400F40BF12FF50BF12FA8
:100FEA00F60BF12FF82FDB2F0A128A110028830142
:060FFA000A128A11C52F46
:04400E00D220FF3F7E
:00000001FF
