:04000000B1EF3EF02E
:107D6200000126EF3FF0000E096E000E0A6E000EB3
:107D72000B6E000E0C6E01A0C1EF3EF0C3EF3EF0A1
:107D8200CBEF3EF00550092606500A2207500B227F
:107D920008500C22D8900536063607360836D89099
:107DA2000432033202320132015002100310041075
:107DB200D8A4DEEF3EF0E0EF3EF0BCEF3EF009C0AB
:107DC20001F00AC002F00BC003F00CC004F0120074
:107DD2001F501B5C016E20501C58026E21501D5812
:107DE200036E22501E58046E27502B5C056E2850DD
:107DF2002C58066E29502D58076E2A502E58086EA0
:107E0200B4EC3EF001C00DF002C00EF003C00FF062
:107E120004C010F01F50235C116E20502458126EC3
:107E220021502558136E22502658146E7AEC3FF0DA
:107E320027500D241B6E28500E201C6E29500F2037
:107E42001D6E2A5010201E6E12000E0EC16E000E04
:107E5200C26E970EC06EC2800C0ECB6E000EBE6E4E
:107E62009494030ECA6E0C0EBD6E000ECC6ECA84C4
:107E7200C282C2B23FEF3FF041EF3FF03AEF3FF034
:107E8200C3CF2FF0C4CF30F02FC01BF030C01CF096
:107E9200000E1CBEFF0E1D6E1E6E000E1F6E000E2B
:107EA200206E000E216E000E226EFF0E236E030E58
:107EB200246E000E256E000E266E000E276E000E3A
:107EC200286E000E296E000E2A6E320E2B6E000EE8
:107ED2002C6E000E2D6E000E2E6EE9EC3EF01B5045
:107EE200316E3140E8423F0BBE6E39EF3FF000EF9A
:107EF20000F0000E166E14BE83EF3FF081EF3FF0EC
:107F02008DEF3FF0141E131E121E116C000E122272
:107F120013221422010E166E10BE94EF3FF092EF60
:107F22003FF09EEF3FF0101E0F1E0E1E0D6C000E56
:107F32000E220F221022010E161A000E176E000ECC
:107F4200186E000E196E000E1A6E115012101310D8
:107F52001410D8B4AFEF3FF0B1EF3FF0E7EF3FF0CE
:107F6200010E156EBBEF3FF0D89011361236133664
:107F72001436152A14AEC0EF3FF0C2EF3FF0B5EF52
:107F82003FF0D8901736183619361A3611500D5C54
:107F920012500E5813500F5814501058D8A0D4EF46
:107FA2003FF0D6EF3FF0DFEF3FF011500D5E125081
:107FB2000E5A13500F5A1450105A1780D890143278
:107FC200133212321132152EC2EF3FF01650D8B4CE
:107FD200EDEF3FF0EFEF3FF0F7EF3FF01A1E191E03
:107FE200181E176C000E182219221A2217C00DF043
:0E7FF20018C00EF019C00FF01AC010F01200E7
:020000040020DA
:08000000FFFFFFFFFFFFFFFF00
:020000040030CA
:0E000000000C191EFF8185FF0FC00FE00F409E
:00000001FF
