:100000008A11FA2F00308A000408840A820700341B
:100010006C346534643431343A34203445346E34CD
:10002000633465346E346434693464346F340D344D
:100030000A3400346C346534643431343A34203456
:100040004134703461346734613464346F340D3456
:040050000A3400343A
:100E7600831203138C1E402F412F3B2F981C442FA7
:100E8600452F472F181218168C121A080800F03032
:100E9600831603139F05061086108312031306108C
:100EA600861033308316031399001812181583120F
:100EB6000313981783160313981683120313181631
:100EC6008C1E662F672FE22F8A113B278A11831209
:100ED6000313AE00E22F0614A201A3017E2F0C1EFF
:100EE600752F762F722F2A0899000130A207031852
:100EF600A30A0030A3072208013E84008A110220BB
:100F06008A11AA002A08031D892F8A2F722F632FA0
:100F16000610A401A5019B2F0C1E922F932F8F2F35
:100F26002B0899000130A4070318A50A0030A5076D
:100F36002408133E84008A1102208A11AB002B0874
:100F4600031DA62FA72F8F2F632F8614A601A70197
:100F5600B82F0C1EAF2FB02FAC2F2C0899000130E4
:100F6600A6070318A70A0030A7072608013E840033
:100F76008A1102208A11AC002C08031DC32FC42F2E
:100F8600AC2F632F8610A801A901D52F0C1ECC2FDC
:100F9600CD2FC92F2D0899000130A8070318A90ADB
:100FA6000030A9072808133E84008A1102208A11FE
:100FB600AD002D08031DE02FE12FC92F632F2E084A
:100FC600A000A1012108003A0319EA2F632F200887
:100FD600613A03196E2F033A03198B2F133A03193B
:100FE600A82F063A0319C52F632F8A1100288312EA
:0A0FF6000313AE0183018A114A2F94
:02400E003A3F37
:00000001FF
