:400000000010002011000000810300008103000008B500F0A3FD00F0B5F90000F8B572B680220021D2004F4800F017FF80230021DA004D4800F011FF0023191C4B4FFF253C
:40004000D8594A00061CAE431037C4B2351CBA18002C07D01778013C7E195778E4B237700232F5E7C0B204330918102BE6D1C0243F4BA7041F60EE253E4A3F493F4F2E025B
:40008000802499201660E50308603D4B3C603D4AC0203D4C410340261D60D82716603B4B21603B4A3B493D01022631201D6099241660394D08608023384827041A062F600B
:4000C000374902608024374B374AA5050F6037481D601760364F374C0760217806250E4326702678344A2E43267017688023D8023843324C324910602078324D0C78171C00
:400100002E78172E05D9304A6878AC78033D9542F6D12E4B2E492F4D192618600C6005202E6000F0DDFA2C482C4A04780520146000F00AFB39682A4B2A4E0B402A483B60B7
:4001400020251027376080240560284F284E294D294A2A4B2A4821061160196037600560F8BDC04600300F4000400F40780E0000040001400C000140100001400000044023
:4001800008000440000104400801044008030440000404400804044000500F4004500F4010500F4018500F4030500F40200105401000010000700F4000010B40CCF1FF0FB6
:4001C000CDF1FF0FC9F1FF0FBDF1FF0F1CFF0B4020FF0B402CFF0B40E5F1FF0F28FF0B40FFFFFBFF08020240200202401000008000000240AF04008008010B4004010B40C2
:400200004000024010B5064C2378002B07D10548002802D0044800E000BF0121217010BDF000002000000000740E000008B5084B002B03D00748084900E000BF074801683E
:40024000002903D0064A002A00D0904708BDC04600000000740E0000F4000020D00000200000000010B562B600F0DCFC00280ED16524012000F052FA00F0D4FC002806D1BF
:40028000013CE4B2002CF4D1034B40221A6000F0BBFC00F035FCFEE7C000002008B500F0C9F800F001F900F069F908BD70B5054B0D1C161C0024C9B21C8000F053F9358058
:4002C000201C70BD0C010020F0B50A275F4387B002900591161C0025284CBD421ADA00F0D1F880B220802388002B0DD00220278800F014FA00F0C6F881B221802288BA429E
:40030000F4D80020019007E00120013500F006FAADB2E1E705220192002535802388002B28D027883088059BC1198AB232809A421FD2E81981B20491049A954209D002983C
:400340004119039100F084F8039A01351070ADB2F2E772B62388DF1BB8B2208062B602994A19013A1378172BD8D0052000F0D6F9D4E73080019807B0F0BDC0460C0100207C
:4003800000B5FEE770B50F490F4A01394B1C14D0506895681468031C1E1AAE4202D040CC40C3F9E7D0681D1C5C1B844202D0002640C3F9E710320139E8E700F01FFDFFF739
:4003C00051FFFEE701000000C80E000008B500239A00032B02D80C48815800E00B490C4801338150302BF3D1FFF718FE09490A4B086800221A60002800D1086080230122B0
:40040000D9050A6008BDC046000000008103000000000020C0000020C800002008B5044B8022196810060843186000F049F908BD0000064008B5054B1A78002A03D101203A
:40044000187000F0BDF8FFF7E9FF08BD10010020094B00B51968094B1A6891420AD019684A1C4039481E8141484205490240885C1A6000E0002000BDAC010020240100209F
:4004800068010020064B074A1B68116800B58B4202D31268981A02E010684133181A00BDAC010020240100200C4A0D4B002130B5106811601D68802464022C431C601D6827
:4004C000084C2C401C60084B084C1D68084B25601970084D08492960106030BDC80F064004030640FFFFFEFF24010020AC010020A9010020C00F0640ED0F0000124910B535
:400500000A68531C3F3A541EA241544223400F4A1468A342FBD00C681268944208D10C4C0F2224682240082A02D00A4A10600AE0094C02222260094CC0B2E0540B60084B14
:4005400019680A431A6010BD200100201C0100200802064040020640800F064028010020880F064038B5041C4518AC4204D02078FFF7C4FF0134F8E738BD00000B4A002317
:40058000116810B513600A4B80201C684002204318601C68074820401860074B07481C68022399430460116010BDC046880F064004020640FFFFFEFF1C01002020010020D9
:4005C0001B4A1C4B1C4810B51C4900241A60046001221B4B1B480A601B490360072008601A491B4804600A601A4A13601A4B1C6000F06EF8194800F049F8032000F04CF868
:4006000017481849184A194B04600C60146018491C60184A184B04200860146017481C601749184A184B04600C7014601C6010BD0B0000020000064040000640480006404A
:4006400007000080000306400403064044000640100306400002064004020640350C0000880E0640C80E0640480F0640080F0640C80F0640880F0640AC01002024010020A7
:40068000A9010020200100201C010020014B98667047C0460000002038B5041C00F029F8054B06491D68A2052C1C0C4014431C6000F023F838BDC04608E400E0FFFF3FFF6D
:4006C0008022024BD00018607047C04600E100E08022024BD00018607047C04680E100E00230800804D0C0460138FDD1C046C0467047EFF3108072B6704780F3108870479F
:4007000001BE7047034B04491A6890B2084318607047C0460CED00E00400FA0510B5041C8022074B1002844205D91868FFF7D8FF04496418F4E758686043FFF7D1FF10BD12
:40074000D40000200080FFFF08B5034B197A4843FFF7C6FF08BDC046D40000200047000038B5041C013806280BD800F03DFB2406260F11080400174820E0174B09E0174B16
:4007800007E00020FFF7BCFF002302E0144B00E0144B5A78187800021043022C04D0032C07D0012C15D104E0040A0302234398B20FE000BA0DE00C4800E00C48C578817811
:4007C00042780378180628430D02284311040843E3E738BDD87F0000C57F0000D47F0000D27F0000D67F0000C17F0000C97F000038B50220FFF7B4FF051C0320FFF7B0FFE5
:400800006C1CE1010C180220FFF7AAFF0023421CD201191CA24209D21078451EEDB2FD2D00D80121C318DBB20132F3E705485B420578DCB2AC4201D0062002E00029FBD04E
:40084000002038BDC07F0000F0B5A34CA544FFF725FD62B600250095002603AF962124A849003A1CFF23FFF72FFD0028F5D139880423062967D924AA1478012C63D19323C9
:400880006B4492221F786A4413783C021C4324AF3A19177953790197E71D9C4603238F4251D89179042317294DD1E3189BB2002B08D0BAAA8949D7187A181778013BC01913
:4008C00080B2F3E762464042019F110282B239430823914237D168E0342900D09AE0012D00D0F6E0032C00D0F3E06FA80021802200F0B3FA80266FA9881935192639E21E41
:40090000FF39AEB200F0A0FA832E00D0DAE0BC797979009F26020E43002F0AD1391C802204A800F09AFAFF2004A900F0F3F901200090301C6FA900F0EDF90125002800D138
:40094000C3E000260A23002168469130012703706A4624AC6B4692330E32277000200F1D197058701180BBB25C4FBAACE418E4192778013BC0199BB280B2002BF4D144423B
:40098000A0B2BAAF564C7B181F19564C38701F19554C000A38701B19172707311F7089B224A89623FFF782FC57E724AF79783B79081C31380A2801D90523C4E700F00AFAB7
:4009C0000611FC8C2FFC32428C507800012D00D07FE0002C7DD1FFF70BFF434243413B7163E0012D75D1012C73D1002B71D13F4A25A8146821889524CF0907703A0A9720C6
:400A00009627FF216C446F446844397022700370042199E7012D5CD1022C5AD96BE7012D57D119E7012D54D19620371943009F424DD86FAA901925A9221C00F005FABEB244
:400A4000002380E7002C44D104AB294A191CA0CAA0C125AF21CB21C708210125231C73E7012D36D1032C34D196226A449521177869440C7838021A0220438718FF0100223A
:400A800080210139CC5D1219D2B20029F9D1002B08D1FF2806D1174B174918780C78171A3A1BD2B2504224AB1871002301214BE7FFF79EFE002802D1104880240460FFF76A
:400AC00021FE06E00125002601E0061CB8E7032339E7042337E7C04614FDFFFFA7FDFFFFACFDFFFFADFDFFFFAEFDFFFFE40000209C0E0000D07F0000D17F0000C00000209C
:400B0000144810B50368002219680B1C013BBF2B03D01C781219D2B2F8E740680478A21AD3B2A34201D1002902D10020FFF7E8FDFFF75EFE084C2168221C402901D0002862
:400B400003D000231360FFF77FFE80202060FFF7D9FD10BDE4000020C000002008B50B4B10201A680A49024000D10A600B68802B0BD1002201200A60FFF7F2FD002804D0DF
:400B80000120FFF7EDFDFFF7E9FD08BD00030B40C00000200D4B8422D004186019688022500208431860196809481960C3239A000260084B084A0948002119600260084973
:400BC000084B09481C221960026070470001054024010540380105401027000014010540881300000C0105402801054008B5FFF780FD044B01211A680A431A60FFF77DFD0D
:400C000008BDC0460000054010B5054C2378002B03D1FFF7BFFF01202070FFF7E7FF10BD18010020024B18680106C80F7047C04604000440264B10B51868002800D0804788
:400C400024490A6852071DD5234C23681A0716D0224B234A186811684B1C40394C1EA1414C42204923400C68A34203D11E4B20221A70E9E71D49C0B2C8541360E4E71C4927
:400C8000042008601B4A1468A20720D51A4B0F2118680140082917D0184A194B1468186884420CD01C68621C3F3C601E8441614214480A40845C14490C601A60E6E7134CFF
:400CC000022122688A432260114B0220186010BD14010020CC0F06400803064040030640AC01002024010020A901002068010020C00F06408C0F0640080206402001002019
:400D00001C0100202801002040020640880F0640800F0640F0B50023A7B0071C0193FF2845D8994243D0244A244C04AE26607F25049206A88022756000F086F8204D214931
:400D400029602B68002BFCDB2068A0210290029A0B069A4201D1002004E00298020F0F2A02D10920019003E021680B0F0A2BFBD1019A002A1DD12660134E3F043743049731
:400D8000FFF7B7FC1149124A0B6803932A602F68002FFCDB039DA0260D60FFF7AEFC2468310602940298884203D0029800E001200190019827B0F0BDB6D700000800004083
:400DC0000400004004000080B6D8000008010B400500008002B4714649084900095649008E4402BC7047C04602B4714649084900095C49008E4402BC7047C04670B50E4B48
:400E00000E4D0024E81A85101E1CAC4204D0A100725890470134F8E700F044F80849094A0E1C541AA5100024AC4204D0A300F05880470134F8E770BDB00E0000B00E0000D8
:400E4000B00E0000B80E000010B50023934203D0CC5CC4540133F9E710BD00B58218031C934202D019700133FAE700BDF80E0000460000000000000001330F4003410F406B
:400E800004430F4002600F40E61062048E04D84018808C40C608E608020111019311C80411140101F8B5C046F8BC08BC9E4670472D020000CD030000F8B5C046F8BC08BC29
:400EC0009E46704705020000D80E0000D000002020000000C0000000000000000000E02EC05D00001800000000366E016C0E0000700E0000000000000000000000000000BA
:400F000000100020110F0000E5110000E511000080B500AF024B83F3088800F067F9C0460010002080B584B000AF021CFB1D1A70224A3B1C0B3312781A70214A3B1C0A33CC
:400F400012781A701F4B1B68013BFB601AE01E4B1868391C0B31FA68131C5B009B18C31801331B780B70184B1868391C0A31FA68131C5B009B18C31802331B780B70FB6816
:400F8000013BFB60FB68002B0ADB0F4B1968FA68131C5B009B185B5CFA1D12789A42D6D90A4B3A1C0B3212781A60094B3A1C0A3212781A60BD4604B080BDC046CCF1FF0F2F
:400FC000CDF1FF0FB0150000D40000201CFF0B4020FF0B4080B500AF164B164A12688021C9020A431A600320FFF79CFF124B03221A60052000F0D8F9104B114A1278D2B2F0
:401000001A60052000F0E0F90A4B0A4A11680D4A0A401A600C4B10221A600C4B802212061A600B4B802212061A600A4B0A4A1A60BD4680BD00010B402CFF0B4028FF0B405C
:40104000D0F1FF0FFFFFFBFF2002024008010B4004010B4000000240B70B008080B582B000AF72B6FB1D00221A7023E0FB1D1A78131C5B009B185B00304A9B183B603B686B
:401080001A78597809020A43997809040A43DB781B0613431A1C3B6819795B791B020B439BB2101C191C00F029F9FB1DFA1D127801321A70FB1D1B78012BD7D9204A214B03
:4010C000101C191C00F02AF91F4BC02292041A601E4BEE2212021A601D4B40221A601D4BC02252031A601C4BD82212011A601B4B992212041A601A4B802292051A60194BA1
:40110000992212041A60184B184A1A60184B184A1278D2B202210A43D2B21A70144B144A1278D2B206210A43D2B21A70FFF752FF00F034F9BD4602B080BDC046881500008E
:4011400094150000A0150000040001400C00014000010440080104400803044010500F4018500F4030500F40200105401000010000700F4010B5064C2378002B07D1054831
:40118000002802D0044800E000BF0121217010BDE8000020000000008415000008B5084B002B03D00748084900E000BF07480168002903D0064A002A00D0904708BDC0463C
:4011C0000000000084150000EC000020D00000200000000080B500AF00F06AF900F008F9FCE7C04680B500AFFEE7C04680B586B000AF254B7B61254B3B61234B7B61234B50
:401200003B6132E03B691B68FB603B695B68BB603B699B683B6000237B600CE0FB681A68BB681A60BB680433BB60FB680433FB607B6804337B607A683B689A42EED13B692B
:40124000DB683B6000237B6008E0BB6800221A60BB680433BB607B6804337B607A683B689A42F2D13B6910333B617B695A1E9341DBB27A69013A7A61002BC3D100F052F92A
:40128000FFF7A8FFFEE7C04601000000D815000080B582B000AF00237B600FE07B68032B04D8114B7A689200D35800E00F4B104A796889008B507B6801337B607B682F2BC5
:4012C000ECD9FFF7CBFE0B4B00221A600A4B1B68002B02D1084B00221A608023DB0501221A60BD4602B080BD000F0000E511000000000020C8000020C000002080B582B04D
:4013000000AF786039607A683B68101C00211A1C00F02EF9BD4602B080BDC04680B586B000AF7860396000233B6100237B612EE07B699B007A68D3181B68BB603B1C0F339C
:40134000BA681A70BB68FF229343BB6017E03B695B003A68D3181B781A1CBB68D3183A69520039688A1852781A703B6901333B613B1C0F333A1C0F321278013A1A703B1C5C
:401380000F331B78002BE2D17B6901337B617B69022BCDD9BD4606B080BDC04680B500AFBD4680BD000000000230800804D0C0460138FDD1C046C0467047EFF3108072B6B7
:4013C000704780F31088704780B582B000AF021CBB1D1A80BB1D1B88044A12785343181CFFF7E2FFBD4602B080BDC046E000002090B583B000AFFC1DFFF7DFFF031C23701C
:40140000074B074A126804218A431A6030BFFB1D1B78181CFFF7D5FFBD4603B090BDC04610ED00E080B500AF124B8422D2041A60104B104A1268802149020A431A600D4B34
:401440000C4A12681A600C4BC32292001A60002000F05CF8FA239B00181C00F03BF8FA235B00181C00F044F8044B1C221A60BD4680BDC04600010540240105402801054024
:4014800090B583B000AFFC1DFFF797FF031C2370064B064A126801210A431A60FB1D1B78181CFFF78EFFBD4603B090BD0000054080B500AF064B1B78002B04D1FFF7B2FF91
:4014C000034B01221A70FFF7DBFFBD4680BDC0460401002080B582B000AF7860034B7A681204120C1A60BD4602B080BD1401054080B582B000AF7860034B7A681204120C4C
:401500001A60BD4602B080BD0C01054080B582B000AF7860024B7A681A60BD4602B080BD3801054070B50E4B0E4D0024E81A85101E1CAC4204D0A100725890470134F8E700
:4015400000F038F80849094A0E1C541AA5100024AC4204D0A300F05880470134F8E770BDC0150000C0150000C0150000C815000000B58218031C934202D019700133FAE772
:4015800000BD00000000000000300F40000400400F40000401330F4003410F4004430F40E61062048E04D84018808C40C608E60804000000F8B5C046F8BC08BC9E467047BC
:4015C0009D11000091120000F8B5C046F8BC08BC9E46704775110000E8150000D0000020180000002000000000000000C0F1FF0FC0C62D00B80B0000030000000000DC0510
:401600000010002011160000111900001119000010B5024B83F3088800F082F90010002070B5204C23688022D20213432360182000F0ACFA22681C4B134023601B4A1C4B80
:401640001A6031221B4B1A60103A1B4B1A600F321A4B1A601F3A1A4B1A60013A194B1A601032194B1A6082221206184B1A6000252560174B174A1360174A1360174A1360E1
:40168000174A1360174A184B1A60184A184B1A601849092000F020FA092000F011FA164B1D6070BD00010B40FFFFFBFF0600008004010B40080202401C02024020020240EC
:4016C00024020240280202402C02024008010B400100008000000240400002408000024004000240070000804400024010000080840002409D1D00000C020B4010B572B6A2
:4017000000240FE029486200131959000B00411889881A5AC31858880004104300F0D6F80134E4B2012CEDD9214A224B1A60224A224B1A60EE221202214B1A609922214BF1
:401740001A6099231B04204A1360204A1360204A1360204A1360204A117806230B43DBB2137081221D4B1A601D4A1E4B1A6005221D4B1A601D4A1E4B1A605F221D4B1A60A1
:40178000C32252031C4B1A600F221C4B1A60D82212011B4B1A6002231A4A136031211A4A11601A4A1360FFF73BFF10BD6824000008080000040001400000080808000140DE
:4017C0000C0001401000014000500F4010500F4020500F4030500F4000700F400000044032004000080004400001044086011800080104400002044008020440180204408B
:401800000803044000040440080404401804044010B5064C2378002B07D1054B002B02D0044800E000BF0123237010BD500100200000000064240000084B10B5002B03D0E1
:401840000749084800E000BF07480368002B00D110BD064B002BFBD09847F9E7000000005401002064240000C80000200000000010B562B600F0B4F800F046FB00F0C2FB64
:4018800000F03EFC00F0BAFC00F04EFB00F0CAFB00F046FC00F0C2FC00F06AFD00F0C8FC00F090FD084B187000F078FD002806D1054B187843425841C0B200F077FDC82007
:4018C00000F042F9ECE7C0469501002010B50A00002100F0BFFD10BD01280AD0002804D002280AD003280CD00EE00122074B1A600AE00222054B1A6006E00422034B1A6032
:4019000002E00822014B1A607047C04604031A4010B500F073FD03680C2B00D1FEE7FEE770B50F4E0F4D13E029686B68AC68002202E001C901C30432A242FAD1E868002223
:4019400002E0002102C304328242FAD11035013E002EE9D100F058FDFFF78AFFFEE7C04601000000C824000010B500230AE0032B03D89A000C49505800E00C4899000C4A3D
:40198000885001332F2BF2D9FFF7B8FE094B1B68002B02D10022074B1A608022D205116801230B43136010BD001600001119000000000020C000002010B500F06FF810BDBA
:4019C00010B500F01DF810BD10B5044A1368802109060B431360FFF7EFFF10BD0000064010B5064B1B78002B04D1FFF7E9FF0122024B1A70FFF7E8FF10BDC0466C0100209C
:401A0000134A144B1A600023134A13601349144A1160144A14490A6007201449086014490B6006381349086013490A60134A1360134A1360134A1360134A1360134A1360A1
:401A4000134A1360134A13601268134B1A8070470B000002000006404000064001000A00480006400700008000030640040306401003064044000640000206400402064097
:401A8000880E0640C80E0640480F0640080F0640C80F0640880F06406E01002005490B68F0229343603A13430B60034B1A88034B1A607047100001406E010020880F06407B
:401AC0001F2318401E3B8340014A13607047C04600E100E001BE704770B504000D001F2802D90020FFF7F6FF1034A40080239B059C4664442068256070BDC04670B50400FD
:401B00000E00032902D90020FFF7E4FF1F2C02D90020FFF7DFFF03252540ED00063500F065FCA408A400074B9C46644421680323AB4099430B003100A9401943216000F0E3
:401B400059FC70BD00E400E010B5040006E0084B586800F041FC074B9C46644480231B029C42F4D8024B9868604300F035FC10BDCC0000200080FFFF10B5034B1B7B58435E
:401B800000F02AFC10BDC046CC000020F0B557464E46C0B483B0040000F028FC0190E71E2D2F74D83F4B1B78DBB29C4208D83E4B1B78DBB29A463D4B1B78DBB2994631E0F4
:401BC0003B4B1B78DBB29C4208D83A4B1B78DBB29A46394B1B78DBB2994623E0374B1B78DBB29C4208D8364B1B78DBB29A46354B1B78DBB2994615E0334B1B78DBB29C42A5
:401C000008D8324B1B78DBB29A46314B1B78DBB2994607E02F4B1B78DBB29A462E4B1B78DBB299462D4BDE5D2F2E09D92A2C07D919222B4B1A60052000F0CEFB192503E0A1
:401C4000274B1D683F231D40B54206D9234BDA5D234B1A60052000F0BFFB1F4B9C4664442378DBB21F4A13601F4B52461A601F4B4A461A600520FFF77FFFB5420AD2174BC6
:401C8000DA5D174B1A60052000F0A6FB02E00020FFF720FF019800F0ADFB03B00CBC91469A46F0BDC0F1FF0FC1F1FF0FC2F1FF0FC3F1FF0FC4F1FF0FC5F1FF0FC6F1FF0FE6
:401CC000C7F1FF0FC8F1FF0FC9F1FF0FCAF1FF0FCBF1FF0FCCF1FF0FCDF1FF0F742400002CFF0B4028FF0B401CFF0B4020FF0B40034B1868C0231B02184000D00120704747
:401D000000010B4010B500F071FB044A1368C02109020B43136000F06DFB10BD00010B4010B500F063FB08490A68084B1A408024E40122430A600A681340802212021343A3
:401D40000B6000F057FB10BD00010B40FF3FFFFF70B5050000F04AFB0400FFF7C9FF002803D0FFF7DDFF012100E0002108482840084A1568084B2B4018431060136801299B
:401D800001D1FFF7BFFF200000F034FB70BDC0460404040010020B40FBFBFBFF10B5244B1B685B0715D5234B1B685B070ED5224BD969042001401F4C22688A432260DA69FE
:401DC0008243DA611B69002B00D098470420FFF7BFFF174B1B685B0518D5164B1B685B0510D5154BD9698022D2001140114802688A430260D969114A0A40DA615B69002BE8
:401E000000D098478020C000FFF7A2FF084B1B685B030CD5074B1B685B0304D5064B9B69002B00D098478020C002FFF791FF10BD10020B40E000002070010020FFFBFFFF11
:401E40000004000C014B18607047C046880105400004000C014B18607047C046940105400004000C014B18607047C0468C01054070B504000D0000F0B9FAAC40024B1C60A7
:401E800000F0B8FA70BDC0460800054010B500F0ADFA064A116804230B43136000F0AAFA18210420FFF7E4FF10BDC04600000540014B18607047C046B801054010B50E4C73
:401EC0008023DB042360236823600020FFF7B8FF236823600C22094B1A600120FFF7E8FF3122074B1A60074C2000FFF7B1FF2000FFF7B6FF10BDC04680010540A401054074
:401F0000A8010540FFFF000010B5064B1B78002B04D1FFF7D3FF0122024B1A70FFF7B6FF10BDC04690010020034A1368802109060B4313607047C046000002400004000CD3
:401F4000014B18607047C046C80105400004000C014B18607047C046D40105400004000C014B18607047C046CC01054070B504000D0000F03BFAAC40024B1C6000F03AFA50
:401F800070BDC0460800054010B500F02FFA064A116808230B43136000F02CFA18210820FFF7E4FF10BDC04600000540014B18607047C046F801054010B50E4C8023DB0446
:401FC0002360236823600020FFF7B8FF236823600C22094B1A600120FFF7E8FF3122074B1A60074C2000FFF7B1FF2000FFF7B6FF10BDC046C0010540E4010540E801054047
:40200000FFFF000010B5064B1B78002B04D1FFF7D3FF0122024B1A70FFF7B6FF10BDC04691010020034A1368802109060B4313607047C046400002400004000C014B1860BB
:402040007047C046080105400004000C014B18607047C046140105400004000C014B18607047C0460C01054070B504000D0000F0BDF9AC40024B1C6000F0BCF970BDC0461E
:402080000800054010B500F0B1F9064A116801230B43136000F0AEF918210120FFF7E4FF10BDC04600000540014B18607047C0463801054010B50E4C8023DB042360236836
:4020C00023600020FFF7B8FF236823600C22094B1A600120FFF7E8FF3122074B1A60074C2000FFF7B1FF2000FFF7B6FF10BDC046000105402401054028010540FFFF000096
:4021000010B5064B1B78002B04D1FFF7D3FF0122024B1A70FFF7B6FF10BDC04692010020034A1368802109060B4313607047C046800002400004000C014B18607047C046BA
:40214000480105400004000C014B18607047C046540105400004000C014B18607047C0464C01054070B504000D0000F03FF9AC40024B1C6000F03EF970BDC04608000540C9
:4021800010B500F033F9064A116802230B43136000F030F918210220FFF7E4FF10BDC04600000540014B18607047C0467801054010B50E4C8023DB04236023682360002099
:4021C000FFF7B8FF236823600C22094B1A600120FFF7E8FF3122074B1A60074C2000FFF7B1FF2000FFF7B6FF10BDC046400105406401054068010540FFFF000010B5064B62
:402200001B78002B04D1FFF7D3FF0122024B1A70FFF7B6FF10BDC04693010020034A1368802109060B4313607047C0460400024010B5002404E02000FFF74EFB0134E4B2E4
:40224000032CF8D9FF22014B1A7010BDE400002010B503210E20FFF751FC24490E20FFF73BFC0122224B1A60224B1B68002B01DA214900E02149224A13680B431360214AAD
:40228000214B1A60214A224B1A600023214A1360214A22490A6022490A6022490A688020400202430A60204A1360204A136001331F4A136002211F4A11601F4908681F4A5A
:4022C000024013430B6000230CE09A001C495018002101605C001B482152802040011A4950500133002BF0D010BDC0469123000020001A4080031A4070021051700200513A
:4023000000001A408500008004001A400000FF0718001A401C001A400400040010001A4014001A4000031A4028021A4038021A4018021A40000F1A4030001A40FFFFFFDF5A
:4023400080001A409C0100209801002010B5074B1B68002B08DB054A1368802109060B4313600A20FFF708FC10BDC04600001A4010B5064B1B78002B04D1FFF769FF0122AF
:40238000024B1A70FFF7E2FF10BDC04694010020014B1A681A60704710021A40024B1B68012018407047C0460400044004490A68D2B202239A4340001840104308607047DF
:4023C00000000440024B1868400801231840704704000440000000000230800804D0C0460138FDD1C046C046C0467047EFF3108072B6704780F310887047C046014B1868C0
:402400007047C046480100200E4B70B500251E000D4CE41AA410A54204D0AB00F35898470135F8E700F03EF8084B00251E00084CE41AA410A54204D0AB00F358984701357D
:40244000F8E770BDB0240000B0240000B0240000B824000003008218934202D019700133FAE770470000000000300F40000400400F400004030405060708090A0B0C0E0FE1
:40248000101112131415161718191B1C1D1E1F2021222325262728292A2B2E2F3031323334354300F8B5C046F8BC08BC9E4670473918000069190000F8B5C046F8BC08BC8D
:4024C0009E46704711180000D8240000C8000020880000005000000000000000010000000000E02EC05D00001800000000366E0104040400FF000000000000000000000068
:40250000000000000000000000000000000000000000000000000000A2240000000000000000000000000000000000000000000000000000000000000000000000000000D5
:40254000000000000000000000000000000000000000000000000000E800002000000000000000000000000000000000000000000000000000000000000000000000000053
:402580000010002091250000912800009128000010B5024B83F3088800F082F90010002070B5204C23688022D20213432360182000F0ACFA22681C4B134023601B4A1C4B44
:4025C0001A6031221B4B1A60103A1B4B1A600F321A4B1A601F3A1A4B1A60013A194B1A601032194B1A6082221206184B1A6000252560174B174A1360174A1360174A136052
:40260000174A1360174A184B1A60184A184B1A601849092000F020FA092000F011FA164B1D6070BD00010B40FFFFFBFF0600008004010B40080202401C020240200202405C
:4026400024020240280202402C02024008010B400100008000000240400002408000024004000240070000804400024010000080840002401D2D00000C020B4010B572B682
:4026800000240FE029486200131959000B00411889881A5AC31858880004104300F0D6F80134E4B2012CEDD9214A224B1A60224A224B1A60EE221202214B1A609922214B62
:4026C0001A6099231B04204A1360204A1360204A1360204A1360204A117806230B43DBB2137081221D4B1A601D4A1E4B1A6005221D4B1A601D4A1E4B1A605F221D4B1A6012
:40270000C32252031C4B1A600F221C4B1A60D82212011B4B1A6002231A4A136031211A4A11601A4A1360FFF73BFF10BDE833000008080000040001400000080808000140BF
:402740000C0001401000014000500F4010500F4020500F4030500F4000700F40000004403200400008000440000104408601180008010440000204400802044018020440FB
:402780000803044000040440080404401804044010B5064C2378002B07D1054B002B02D0044800E000BF0123237010BD5001002000000000E4330000084B10B5002B03D0C3
:4027C0000749084800E000BF07480368002B00D110BD064B002BFBD09847F9E70000000054010020E4330000C80000200000000010B562B600F0B4F800F046FB00F0C2FB46
:4028000000F03EFC00F0BAFC00F04EFB00F0CAFB00F046FC00F0C2FC00F06AFD00F0C8FC00F090FD084B187000F078FD002806D1054B187843425841C0B200F077FDC82077
:4028400000F042F9ECE7C0469501002010B50A00002100F0BFFD10BD01280AD0002804D002280AD003280CD00EE00122074B1A600AE00222054B1A6006E00422034B1A60A2
:4028800002E00822014B1A607047C04604031A4010B500F073FD03680C2B00D1FEE7FEE770B50F4E0F4D13E029686B68AC68002202E001C901C30432A242FAD1E868002294
:4028C00002E0002102C304328242FAD11035013E002EE9D100F058FDFFF78AFFFEE7C046010000004834000010B500230AE0032B03D89A000C49505800E00C4899000C4A1E
:40290000885001332F2BF2D9FFF7B8FE094B1B68002B02D10022074B1A608022D205116801230B43136010BD802500009128000000000020C000002010B500F06FF810BD0C
:4029400010B500F01DF810BD10B5044A1368802109060B431360FFF7EFFF10BD0000064010B5064B1B78002B04D1FFF7E9FF0122024B1A70FFF7E8FF10BDC0466C0100200C
:40298000134A144B1A600023134A13601349144A1160144A14490A6007201449086014490B6006381349086013490A60134A1360134A1360134A1360134A1360134A136012
:4029C000134A1360134A13601268134B1A8070470B000002000006404000064001000A00480006400700008000030640040306401003064044000640000206400402064008
:402A0000880E0640C80E0640480F0640080F0640C80F0640880F06406E01002005490B68F0229343603A13430B60034B1A88034B1A607047100001406E010020880F0640EB
:402A40001F2318401E3B8340014A13607047C04600E100E001BE704770B504000D001F2802D90020FFF7F6FF1034A40080239B059C4664442068256070BDC04670B504006D
:402A80000E00032902D90020FFF7E4FF1F2C02D90020FFF7DFFF03252540ED00063500F065FCA408A400074B9C46644421680323AB4099430B003100A9401943216000F054
:402AC00059FC70BD00E400E010B5040006E0084B586800F041FC074B9C46644480231B029C42F4D8024B9868604300F035FC10BDCC0000200080FFFF10B5034B1B7B5843CF
:402B000000F02AFC10BDC046CC000020F0B557464E46C0B483B0040000F028FC0190E71E2D2F74D83F4B1B78DBB29C4208D83E4B1B78DBB29A463D4B1B78DBB2994631E064
:402B40003B4B1B78DBB29C4208D83A4B1B78DBB29A46394B1B78DBB2994623E0374B1B78DBB29C4208D8364B1B78DBB29A46354B1B78DBB2994615E0334B1B78DBB29C4215
:402B800008D8324B1B78DBB29A46314B1B78DBB2994607E02F4B1B78DBB29A462E4B1B78DBB299462D4BDE5D2F2E09D92A2C07D919222B4B1A60052000F0CEFB192503E012
:402BC000274B1D683F231D40B54206D9234BDA5D234B1A60052000F0BFFB1F4B9C4664442378DBB21F4A13601F4B52461A601F4B4A461A600520FFF77FFFB5420AD2174B37
:402C0000DA5D174B1A60052000F0A6FB02E00020FFF720FF019800F0ADFB03B00CBC91469A46F0BDC0F1FF0FC1F1FF0FC2F1FF0FC3F1FF0FC4F1FF0FC5F1FF0FC6F1FF0F56
:402C4000C7F1FF0FC8F1FF0FC9F1FF0FCAF1FF0FCBF1FF0FCCF1FF0FCDF1FF0FF43300002CFF0B4028FF0B401CFF0B4020FF0B40034B1868C0231B02184000D00120704728
:402C800000010B4010B500F071FB044A1368C02109020B43136000F06DFB10BD00010B4010B500F063FB08490A68084B1A408024E40122430A600A68134080221202134314
:402CC0000B6000F057FB10BD00010B40FF3FFFFF70B5050000F04AFB0400FFF7C9FF002803D0FFF7DDFF012100E0002108482840084A1568084B2B4018431060136801290C
:402D000001D1FFF7BFFF200000F034FB70BDC0460404040010020B40FBFBFBFF10B5244B1B685B0715D5234B1B685B070ED5224BD969042001401F4C22688A432260DA696E
:402D40008243DA611B69002B00D098470420FFF7BFFF174B1B685B0518D5164B1B685B0510D5154BD9698022D2001140114802688A430260D969114A0A40DA615B69002B58
:402D800000D098478020C000FFF7A2FF084B1B685B030CD5074B1B685B0304D5064B9B69002B00D098478020C002FFF791FF10BD10020B40E000002070010020FFFBFFFF82
:402DC0000004000C014B18607047C046880105400004000C014B18607047C046940105400004000C014B18607047C0468C01054070B504000D0000F0B9FAAC40024B1C6018
:402E000000F0B8FA70BDC0460800054010B500F0ADFA064A116804230B43136000F0AAFA18210420FFF7E4FF10BDC04600000540014B18607047C046B801054010B50E4CE3
:402E40008023DB042360236823600020FFF7B8FF236823600C22094B1A600120FFF7E8FF3122074B1A60074C2000FFF7B1FF2000FFF7B6FF10BDC04680010540A4010540E4
:402E8000A8010540FFFF000010B5064B1B78002B04D1FFF7D3FF0122024B1A70FFF7B6FF10BDC04690010020034A1368802109060B4313607047C046000002400004000C44
:402EC000014B18607047C046C80105400004000C014B18607047C046D40105400004000C014B18607047C046CC01054070B504000D0000F03BFAAC40024B1C6000F03AFAC1
:402F000070BDC0460800054010B500F02FFA064A116808230B43136000F02CFA18210820FFF7E4FF10BDC04600000540014B18607047C046F801054010B50E4C8023DB04B6
:402F40002360236823600020FFF7B8FF236823600C22094B1A600120FFF7E8FF3122074B1A60074C2000FFF7B1FF2000FFF7B6FF10BDC046C0010540E4010540E8010540B7
:402F8000FFFF000010B5064B1B78002B04D1FFF7D3FF0122024B1A70FFF7B6FF10BDC04691010020034A1368802109060B4313607047C046400002400004000C014B18602C
:402FC0007047C046080105400004000C014B18607047C046140105400004000C014B18607047C0460C01054070B504000D0000F0BDF9AC40024B1C6000F0BCF970BDC0468F
:403000000800054010B500F0B1F9064A116801230B43136000F0AEF918210120FFF7E4FF10BDC04600000540014B18607047C0463801054010B50E4C8023DB0423602368A6
:4030400023600020FFF7B8FF236823600C22094B1A600120FFF7E8FF3122074B1A60074C2000FFF7B1FF2000FFF7B6FF10BDC046000105402401054028010540FFFF000006
:4030800010B5064B1B78002B04D1FFF7D3FF0122024B1A70FFF7B6FF10BDC04692010020034A1368802109060B4313607047C046800002400004000C014B18607047C0462B
:4030C000480105400004000C014B18607047C046540105400004000C014B18607047C0464C01054070B504000D0000F03FF9AC40024B1C6000F03EF970BDC046080005403A
:4031000010B500F033F9064A116802230B43136000F030F918210220FFF7E4FF10BDC04600000540014B18607047C0467801054010B50E4C8023DB04236023682360002009
:40314000FFF7B8FF236823600C22094B1A600120FFF7E8FF3122074B1A60074C2000FFF7B1FF2000FFF7B6FF10BDC046400105406401054068010540FFFF000010B5064BD2
:403180001B78002B04D1FFF7D3FF0122024B1A70FFF7B6FF10BDC04693010020034A1368802109060B4313607047C0460400024010B5002404E02000FFF74EFB0134E4B255
:4031C000032CF8D9FF22014B1A7010BDE400002010B503210E20FFF751FC24490E20FFF73BFC0122224B1A60224B1B68002B01DA214900E02149224A13680B431360214A1E
:40320000214B1A60214A224B1A600023214A1360214A22490A6022490A6022490A688020400202430A60204A1360204A136001331F4A136002211F4A11601F4908681F4ACA
:40324000024013430B6000230CE09A001C495018002101605C001B482152802040011A4950500133002BF0D010BDC0461133000020001A4080031A4070021051700200511A
:4032800000001A408500008004001A400000FF0718001A401C001A400400040010001A4014001A4000031A4028021A4038021A4018021A40000F1A4030001A40FFFFFFDFCB
:4032C00080001A409C0100209801002010B5074B1B68002B08DB054A1368802109060B4313600A20FFF708FC10BDC04600001A4010B5064B1B78002B04D1FFF769FF012220
:40330000024B1A70FFF7E2FF10BDC04694010020014B1A681A60704710021A40024B1B68012018407047C0460400044004490A68D2B202239A43400018401043086070474F
:4033400000000440024B1868400801231840704704000440000000000230800804D0C0460138FDD1C046C046C0467047EFF3108072B6704780F310887047C046014B186830
:403380007047C046480100200E4B70B500251E000D4CE41AA410A54204D0AB00F35898470135F8E700F03EF8084B00251E00084CE41AA410A54204D0AB00F35898470135EE
:4033C000F8E770BD3034000030340000303400003834000003008218934202D019700133FAE770470000000000300F40000400400F400004030405060708090A0B0C0E0F12
:40340000101112131415161718191B1C1D1E1F2021222325262728292A2B2E2F3031323334354300F8B5C046F8BC08BC9E467047B9270000E9280000F8B5C046F8BC08BCDF
:403440009E4670479127000058340000C8000020880000005000000000000000010000000000E02EC05D00001800000000366E0104040400FF0000000000000000000000B9
:4034800000000000000000000000000000000000000000000000000022340000000000000000000000000000000000000000000000000000000000000000000000000000B6
:4034C000000000000000000000000000000000000000000000000000E8000020000000000000000000000000000000000000000000000000000000000000000000000000C4
:403500000010002011350000F1370000F137000010B5024B83F3088800F072F90010002070B5204C23688022D20213432360182000F084FA22681C4B134023601B4A1C4B7E
:403540001A6031221B4B1A60103A1B4B1A600F321A4B1A601F3A1A4B1A60013A194B1A601032194B1A6082221206184B1A6000252560174B174A1360174A1360174A1360C2
:40358000174A1360174A184B1A60184A184B1A601849092000F010FA092000F001FA164B1D6070BD00010B40FFFFFBFF0600008004010B40080202401C02024020020240ED
:4035C00024020240280202402C02024008010B400100008000000240400002408000024004000240070000804400024010000080840002404D3C00000C020B4010B572B6B4
:4036000000240FE028486200131959000B00411889881A5AC31858880004104300F0C6F80134E4B2012CEDD9204A214B1A60214A214B1A60EE221202204B1A609922204BE9
:403640001A6099231B041F4A13601F4A13601F4A13601F4A13601F4A117806230B43DBB21370FF221C4B1A601C4A1D4B1A603F221C4B1A601C4A1D4B1A605F221C4B1A60D6
:403680001C4A1D4B1A600F221C4B1A601C4A1D4B1A6002231C4A13601C491D4A11601D4A1360FFF73DFF10BDE0420000080800000400014000000808080001400C00014037
:4036C0001000014000500F4010500F4020500F4030500F4000700F40000004409224490008000440000104409625D90008010440000204400060DB000802044018020440FC
:40370000B66DDB000803044000040440B10D0000080404401804044010B5064C2378002B07D1054B002B02D0044800E000BF0123237010BD5001002000000000DC42000086
:40374000084B10B5002B03D00749084800E000BF07480368002B00D110BD064B002BFBD09847F9E70000000054010020DC420000C80000200000000010B562B600F0A0F88B
:4037800000F01AFB00F096FB00F012FC00F08EFC00F022FB00F09EFB00F01AFC00F096FC00F03EFD00F09CFCFEE7C04610B50A00002100F08BFD10BD01280AD0002804D01B
:4037C00002280AD003280CD00EE00122074B1A600AE00222054B1A6006E00422034B1A6002E00822014B1A607047C04604031A4010B500F03FFD03680C2B00D1FEE7FEE717
:4038000070B50F4E0F4D13E029686B68AC68002202E001C901C30432A242FAD1E868002202E0002102C304328242FAD11035013E002EE9D100F024FDFFF79EFFFEE7C046CE
:40384000010000004043000010B500230AE0032B03D89A000C49505800E00C4899000C4A885001332F2BF2D9FFF7C8FE094B1B68002B02D10022074B1A608022D20511688D
:4038800001230B43136010BD00350000F137000000000020C000002010B500F06FF810BD10B500F01DF810BD10B5044A1368802109060B431360FFF7EFFF10BD0000064083
:4038C00010B5064B1B78002B04D1FFF7E9FF0122024B1A70FFF7E8FF10BDC0466C010020134A144B1A600023134A13601349144A1160144A14490A60072014490860144948
:403900000B6006381349086013490A60134A1360134A1360134A1360134A1360134A1360134A1360134A13601268134B1A8070470B000002000006404000064001000A0097
:403940004800064007000080000306400403064010030640440006400002064004020640880E0640C80E0640480F0640080F0640C80F0640880F06406E01002005490B68E9
:40398000F0229343603A13430B60034B1A88034B1A607047100001406E010020880F06401F2318401E3B8340014A13607047C04600E100E001BE704770B504000D001F28B3
:4039C00002D90020FFF7F6FF1034A40080239B059C4664442068256070BDC04670B504000E00032902D90020FFF7E4FF1F2C02D90020FFF7DFFF03252540ED00063500F0F6
:403A000031FCA408A400074B9C46644421680323AB4099430B003100A9401943216000F025FC70BD00E400E010B5034B1B7B584300F00EFC10BDC046CC000020F0B5574674
:403A40004E46C0B483B0040000F00CFC0190E71E2D2F74D83F4B1B78DBB29C4208D83E4B1B78DBB29A463D4B1B78DBB2994631E03B4B1B78DBB29C4208D83A4B1B78DBB23F
:403A80009A46394B1B78DBB2994623E0374B1B78DBB29C4208D8364B1B78DBB29A46354B1B78DBB2994615E0334B1B78DBB29C4208D8324B1B78DBB29A46314B1B78DBB2D6
:403AC000994607E02F4B1B78DBB29A462E4B1B78DBB299462D4BDE5D2F2E09D92A2C07D919222B4B1A60052000F0B2FB192503E0274B1D683F231D40B54206D9234BDA5DA7
:403B0000234B1A60052000F0A3FB1F4B9C4664442378DBB21F4A13601F4B52461A601F4B4A461A600520FFF77FFFB5420AD2174BDA5D174B1A60052000F08AFB02E0002085
:403B4000FFF738FF019800F091FB03B00CBC91469A46F0BDC0F1FF0FC1F1FF0FC2F1FF0FC3F1FF0FC4F1FF0FC5F1FF0FC6F1FF0FC7F1FF0FC8F1FF0FC9F1FF0FCAF1FF0FB8
:403B8000CBF1FF0FCCF1FF0FCDF1FF0FEC4200002CFF0B4028FF0B401CFF0B4020FF0B40034B1868C0231B02184000D00120704700010B4010B500F055FB044A1368C021F5
:403BC00009020B43136000F051FB10BD00010B4010B500F047FB08490A68084B1A408024E40122430A600A6813408022120213430B6000F03BFB10BD00010B40FF3FFFFF2E
:403C000070B5050000F02EFB0400FFF7C9FF002803D0FFF7DDFF012100E0002108482840084A1568084B2B40184310601368012901D1FFF7BFFF200000F018FB70BDC046FE
:403C40000404040010020B40FBFBFBFF10B5244B1B685B0715D5234B1B685B070ED5224BD969042001401F4C22688A432260DA698243DA611B69002B00D098470420FFF79F
:403C8000BFFF174B1B685B0518D5164B1B685B0510D5154BD9698022D2001140114802688A430260D969114A0A40DA615B69002B00D098478020C000FFF7A2FF084B1B6805
:403CC0005B030CD5074B1B685B0304D5064B9B69002B00D098478020C002FFF791FF10BD10020B40E000002070010020FFFBFFFF0004000C014B18607047C0468801054050
:403D00000004000C014B18607047C046940105400004000C014B18607047C0468C01054070B504000D0000F09DFAAC40024B1C6000F09CFA70BDC0460800054010B500F088
:403D400091FA064A116804230B43136000F08EFA18210420FFF7E4FF10BDC04600000540014B18607047C046B801054010B50E4C8023DB042360236823600020FFF7B8FFC3
:403D8000236823600C22094B1A600120FFF7E8FF3122074B1A60074C2000FFF7B1FF2000FFF7B6FF10BDC04680010540A4010540A8010540FFFF000010B5064B1B78002BB5
:403DC00004D1FFF7D3FF0122024B1A70FFF7B6FF10BDC04690010020034A1368802109060B4313607047C046000002400004000C014B18607047C046C80105400004000C16
:403E0000014B18607047C046D40105400004000C014B18607047C046CC01054070B504000D0000F01FFAAC40024B1C6000F01EFA70BDC0460800054010B500F013FA064AB6
:403E4000116808230B43136000F010FA18210820FFF7E4FF10BDC04600000540014B18607047C046F801054010B50E4C8023DB042360236823600020FFF7B8FF23682360C5
:403E80000C22094B1A600120FFF7E8FF3122074B1A60074C2000FFF7B1FF2000FFF7B6FF10BDC046C0010540E4010540E8010540FFFF000010B5064B1B78002B04D1FFF737
:403EC000D3FF0122024B1A70FFF7B6FF10BDC04691010020034A1368802109060B4313607047C046400002400004000C014B18607047C046080105400004000C014B18609B
:403F00007047C046140105400004000C014B18607047C0460C01054070B504000D0000F0A1F9AC40024B1C6000F0A0F970BDC0460800054010B500F095F9064A11680123D9
:403F40000B43136000F092F918210120FFF7E4FF10BDC04600000540014B18607047C0463801054010B50E4C8023DB042360236823600020FFF7B8FF236823600C22094B2C
:403F80001A600120FFF7E8FF3122074B1A60074C2000FFF7B1FF2000FFF7B6FF10BDC046000105402401054028010540FFFF000010B5064B1B78002B04D1FFF7D3FF012203
:403FC000024B1A70FFF7B6FF10BDC04692010020034A1368802109060B4313607047C046800002400004000C014B18607047C046480105400004000C014B18607047C04651
:40400000540105400004000C014B18607047C0464C01054070B504000D0000F023F9AC40024B1C6000F022F970BDC0460800054010B500F017F9064A116802230B431360CD
:4040400000F014F918210220FFF7E4FF10BDC04600000540014B18607047C0467801054010B50E4C8023DB042360236823600020FFF7B8FF236823600C22094B1A6001208E
:40408000FFF7E8FF3122074B1A60074C2000FFF7B1FF2000FFF7B6FF10BDC046400105406401054068010540FFFF000010B5064B1B78002B04D1FFF7D3FF0122024B1A7006
:4040C000FFF7B6FF10BDC04693010020034A1368802109060B4313607047C0460400024010B5002404E02000FFF766FB0134E4B2032CF8D9FF22014B1A7010BDE40000207B
:4041000010B503210E20FFF769FC24490E20FFF753FC0122224B1A60224B1B68002B01DA214900E02149224A13680B431360214A214B1A60214A224B1A600023214A13602D
:40414000214A22490A6022490A6022490A688020400202430A60204A1360204A136001331F4A136002211F4A11601F4908681F4A024013430B6000230CE09A001C4950183B
:40418000002101605C001B482152802040011A4950500133002BF0D010BDC0464142000020001A4080031A40700210517002005100001A408500008004001A400000FF0742
:4041C00018001A401C001A400400040010001A4014001A4000031A4028021A4038021A4018021A40000F1A4030001A40FFFFFFDF80001A409C0100209801002010B5074BD8
:404200001B68002B08DB054A1368802109060B4313600A20FFF708FC10BDC04600001A4010B5064B1B78002B04D1FFF769FF0122024B1A70FFF7E2FF10BDC0469401002001
:40424000014B1A681A60704710021A40000000000230800804D0C0460138FDD1C046C046C0467047EFF3108072B6704780F310887047C046014B18687047C0464801002064
:404280000E4B70B500251E000D4CE41AA410A54204D0AB00F35898470135F8E700F03EF8084B00251E00084CE41AA410A54204D0AB00F35898470135F8E770BD284300008E
:4042C00028430000284300003043000003008218934202D019700133FAE770470000000000300F40000400400F400004030405060708090A0B0C0E0F1011121314151617C2
:4043000018191B1C1D1E1F2021222325262728292A2B2E2F3031323334354300F8B5C046F8BC08BC9E4670474137000049380000F8B5C046F8BC08BC9E4670471937000079
:4043400050430000C8000020880000005000000000000000010000000000E02EC05D00001800000000366E0104040400FF00000000000000000000000000000000000000F6
:40438000000000000000000000000000000000001A4300000000000000000000000000000000000000000000000000000000000000000000000000000000000000000000A0
:4043C00000000000000000000000000000000000E80000200000000000000000000000000000000000000000000000000000000000000000000000000000000000000000B5
:40440000000000000000000000000000000000000000000000000000000000000000000000000000000000000000000000000000000000000000000000000000000000007C
:40444000000000000000000000000000000000000000000000000000000000000000000000000000000000000000000000000000000000000000000000000000000000003C
:4044800000000000000000000000000000000000000000000000000000000000000000000000000000000000000000000000000000000000000000000000000000000000FC
:4044C00000000000000000000000000000000000000000000000000000000000000000000000000000000000000000000000000000000000000000000000000000000000BC
:407FC0000A1135000069000000000F0000000000000001000000000000000000000000000000000000000000000000000000000000000000000000000000000000000000B8
:0200000490303A
:02000000E3AD6E
:0200000490402A
:20000000FFFF010000000000000000000000000000000000000000000000000000000000E1
:0200000490501A
:0C000000000204C81193110104DCF5405B
:0200000490600A
:0100000001FE
:00000001FF