:040000008A11F92F39
:100EE000831203131F151F19762F772F732F1E08D8
:100EF000A100831603131E0883120313A000080029
:100F000083120313A401A501201C872F882F8E2F85
:100F10002208A4070318A50A2308A5070130031017
:100F2000A20DA30DFF3E031D8F2F01300310A10C56
:100F3000A00CFF3E031D962F20082104031DA12FA6
:100F4000A22F842F2508A1002408A00008008030CB
:100F5000831603139F00C830831203139F001F14CE
:100F60003E30831603139200831203139B018316F2
:100F70000313871003308312031392000C309D007B
:100F8000910112151F08C73910389F008A11702768
:100F90008A118A1170278A11831203132108AB006A
:100FA0002008AA002B08A1002A08A0003C30A200BB
:100FB0000030A3008A1180278A11831203132008AE
:100FC000A6002108A7002708A600A7012608A80058
:100FD0002708A9002908A7002808A6000310A70CC5
:100FE000A60C0310A70CA60C26089B00C22F8A1182
:100FF000002883120313AA01AB0183018A11A72FD2
:02400E003A3F37
:00000001FF
