:060000000A128A11FC2F18
:100E6800003083120313A3000030A2002530A10034
:100E78008030A0000A128A115F270A128A1183168D
:100E88000313981C482F492F432F663083120313EE
:100E98009900073083120313AA005830A90059306B
:100EA800A800A80B552FA90B552FAA0B552F432F78
:100EB8000A128A110028831203132008A4002108AB
:100EC800A5002208A6002308A70006300310A40DD9
:100ED800A50DA60DA70DFF3E031D6A2F2708F300D9
:100EE8002608F2002508F1002408F0000030F70079
:100EF8009830F6009630F5008030F4000A128A1116
:100F080096270A128A117008FF3E83160313990068
:100F18001811181298161813831203131813181699
:100F2800981708000030FC000030FB000030FA0081
:100F38000030F90073087204710470040319A52FB6
:100F4800A62FF32FFD01FD0AB62F0130F80003107C
:100F5800F00DF10DF20DF30DF80BAB2F0130F80089
:100F68007808FD07F31FB92FBA2FA92F0130F80011
:100F78000310F90DFA0DFB0DFC0DF80BBC2F7308CF
:100F88007702031DD12F72087602031DD12F710835
:100F98007502031DD12F70087402031CD42FD52F9E
:100FA800E42F7008F4027108031C710FF50272082F
:100FB800031C720FF6027308031C730FF7027914EF
:100FC80001300310F30CF20CF10CF00CFF3E031D82
:100FD800E52F0130FD02031DF22FF32FBA2F7C08F5
:100FE800F3007B08F2007A08F1007908F0000800A5
:080FF80083010A128A11342F53
:04400E00D220FF3F7E
:00000001FF
