:040000006F00006528
:1000040000000000000000006F0080086F00401E28
:1000140000000000000000000000000000000000DC
:1000240000000000000000000000000000000000CC
:100034006F004006000000006F00E00500000000B3
:100044006F0080056F0060056F0040056F0020059C
:100054006F0000056F00E0046F00C00400000000A2
:100064006F0060046F0040046F0020046F00000400
:100074006F00E0036F00C003000000006F00600326
:100084006F0040036F0020036F0000036F00E00265
:1000940001A001A001A001A001A001A001A001A054
:1000A40001A001A001A001A001A001A001A001A044
:1000B40001A001A001A001A001A001A0B717004068
:1000C400930670052380D704130780FA2380E7047E
:1000D40003C6B7041376F60DA385C704238007046B
:1000E400137605022DC603C6A700118A0DE22380EC
:1000F400D7042380E70403C7A700136747002385B9
:10010400E7009307004B01000100FD17EDFFB7174F
:100114000040930670052380D704130780FA2380D8
:10012400E7047D892394A700010001000100010078
:10013400238007042380D7042380E7049306100553
:1001440037270040A303D7802380070482801376D7
:1001540005046DDE03C6A700418A0DE22380D7049F
:100164002380E70403C7A700136707012385E7007B
:100174009307007D01000100FD17EDFFB717004054
:10018400930670052380D704130780FA7D892380A2
:10019400E704136505042394A7000100010001008E
:1001A4000100238007042380D7042380E7049306F7
:1001B40030053727004079B7411181460146814512
:1001C400114506C6912AB71700401307700523800E
:1001D400E704130780FA2380E70403C7670413675F
:1001E40017002383E70423800704B240410182807F
:1001F40081460146814511450522B7170040130782
:1002040070052380E704130780FA2380E7047D57F1
:100214002396E70203C76704136717002383E704E1
:100224002380070401A0BD473305F50201007D15B5
:1002340075FD8280411122C426C206C6AA840144E7
:1002440063179400B2402244924441018280050421
:100254001305803E4204C13F4180DDB7230304807F
:1002640015472303E48001002302A48082808307CE
:100274006480E3CE07FE23030480828083076480C6
:10028400E3CE07FE03454480828083076480E3CE87
:1002940007FE2302A4808280411126C44AC24EC0B4
:1002A40006C61377F50BAD47AA892E8995446306D4
:1002B400F70019456537653F8D444E854537FD592F
:1002C400FD1463983401B240A244124982494101A9
:1002D4008280135509011375F50F453F2209CDB7E7
:1002E400011126CC06CEB704080051371545BD3799
:1002F400713769372AC6A53F32459377150089EBD4
:10030400136515001375F50FF240E2440561828010
:10031400FD14E9FC0145CDBF397126DC4ADA4ED81B
:1003240052D656D45AD25ED006DE62CE66CCB7E739
:1003340000E07D5783AA070022C603AA470023A032
:10034400E71823A2E718B7170040130770052380A6
:10035400E704130780FA2380E70483C74704930B59
:1003640075FFB684E20793FBFB0F8546AA892E8BA3
:10037400328937240040E187015763FA7601630824
:10038400D5008946130700026313D5000157D98F9E
:1003940093F7F70FB71C00402382FC041147230393
:1003A400E4801305F00F5D3D094CD13563697C1180
:1003B400B70707003E9B378707007955637EEB023A
:1003C400B3079B00636AF702A9476399F90689E4B6
:1003D4008144713D26850DA0DA850945753D0509E1
:1003E4000345F9FFFD14050B4D3581C49377FB0FCD
:1003F400FDF7FD3569FD7D55B717004013077005FE
:100404002380E704130780FA2380E70403C7470423
:10041400418B2382E704F250B7E700E023A0571191
:1004240023A24711E25432445259C259325AA25AB1
:10043400125B825B724CE24C21618280A54763951A
:10044400F90685691309F00FB3069900B3742B01FB
:10045400B6941349F9FFB3749900856B3379690134
:10046400416B9387F9FFB3F7270199E363FC3401E8
:1004740093D94900C147E3E637FF99BF0569C169CC
:100484007D19D9B71305800D63886901130500022E
:100494006384790113051008CA85FD3B913521DD7C
:1004A4004E99B3843441D9B7DA852D45F533CA94CE
:1004B400E30099F20509D933A30FA9FED5BF9387A9
:1004C400F9FF93F7F70F636CFC0803C75C04B707E5
:1004D40008001377070219E3B78707007955E37D0E
:1004E400FBF033079B00E3E9E7F089476390F904E5
:1004F4008980D549E38E04ECDA850945713B1109FD
:100504000327C9FF91472320E48003076480E34E57
:1005140007FE23033481FD17EDFBFD14110B81C489
:100524009377FB0FE9FF6D3B71F5F1B58547E387E1
:10053400F9F4DA852D458D339389F4FFE38A04E8D1
:10054400353B93F7390091EB832604800327090098
:1005540093074900E39FE6E63E89CE84F1BFB547A1
:100564006396F9001305900BD5399DB5B147130572
:10057400B00AE38BF9FE9947639EF902DA852D45AB
:10058400213B81448D4BA149D5396396740183275E
:1005940004802320F9008504E39834FF8327048032
:1005A40013172B01635507002312F90015B52322F5
:1005B400F90039BD9D476399F90281451305B004DB
:1005C400E139BD442320090023220900FD597D316E
:1005D40093F77400CA9703C70700FD14398D23806D
:1005E400A700E39634FFEDB3A1476392F904CD3934
:1005F4008144630D0B008D479304C0036308FB0023
:100604009304000563048B01930440041375C50728
:10061400E30095DC194599319939054581312685E1
:10062400AD3109459D316D39E31405DAE9B39147DC
:100634006399F900130560061531153913059009FE
:0C06440025B7E38709D8F15469B3000022
:10065000974100209381011B178100201301819A8B
:1006600013054000973500209385C51917360020E3
:100670001306067E63FAC5008322050023A05500F9
:1006800011059105E3EAC5FE170500001305C52312
:1006900097450020938505971386818063FAC500EE
:1006A0008322050023A0550011059105E3EAC5FE4C
:1006B00013858180938581806377B50023200500B1
:1006C0001105E36DB5FE9302800873A002309732E6
:1006D00000209382221393E212007390523097020B
:1006E00000009382C2067390123473002030B73733
:1006F0000040854603C7A700E39EE6FE03C58700CA
:100700008280411106C6A52AB7370040130770F84A
:100710002381E7000D47A381E70013070004A380AE
:10072000E70005472387E700371700408327870C3A
:100730008545414593E707082324F70CA928B240D3
:100740008D45130500084101B9A0371700408327E4
:10075000870C411106C693E7070822C42324F70C2F
:10076000854541450D288D45130500082D207165EF
:1007700013050520793737340040953F974700200F
:1007800083C747882304F4001305007D97300020B9
:10079000E780802ADDB7914763EEB70217070000B4
:1007A000130747118A05BA959C41BA978287B717F4
:1007B000004003A7470D1345F5FF698F23AAE70CF7
:1007C00003A7070D698F23A8E70C03A7070C798DF2
:1007D00023A0A70C8280B717004083A6470D1347BC
:1007E000F5FFF98E23AAD70C83A6070D558D23A8F4
:1007F000A70C83A6070C758F23A0E70C8280B71780
:10080000004003A7470D498F23AAE70C03A7070D54
:100810001345F5FF45BFB717004083A6470D1347A3
:10082000F5FF758F23AAE70C03A7070C598D4DB769
:10083000B717004003A7470D498FEDB7B717004022
:1008400003D58700420541819377050491EB9377A7
:10085000F5013755E801130505803345F50282801F
:100860009377050C130700046397E7009377F5016E
:1008700037459C1CCDB72165130505D082804111F9
:1008800022C406C62A845D3F2947B307E502B24069
:100890008D83B3D7870222449507B3D7E702373752
:1008A0000040C207C1832316F70041018280000087
:1008B000FEFEFFFF26FFFFFF4EFFFFFF66FFFFFF6D
:0408C00080FFFFFFB7
:0808C40020000000000000000C
:00000001FF
