:02000000FD2BD6
:1007660008000800B423B3230800B5238316071036
:1007760087100711831207140330A2008A30A100E4
:100786005530A000A00BC52BA10BC52BA20BC52B6A
:10079600CC2B831287140330A2008A30A100553077
:1007A600A000A00BD42BA10BD42BA20BD42BDB2B9C
:1007B600831207150330A2008A30A1005530A0002D
:1007C600A00BE32BA10BE32BA20BE32BEA2B83124B
:1007D6000710871007110330A2008A30A100553098
:1007E600A000A00BF42BA10BF42BA20BF42BFB2BDC
:0807F600BD2B00288301B82B84
:02400E00943FDD
:00000001FF
