:040000008A11FD2F35
:100F8400080008000800831203131A0808008A11D5
:100F9400C3278A118A11C4278A118A11C2278A1188
:100FA40008000C30831603139900181118128312C9
:100FB4000313981783160313181398168312031335
:100FC4001813181608008A11C9278A1183160313E7
:100FD40086018312031386018316031387178A116C
:100FE400D3278A118A11C5278A1183120313860015
:0C0FF400F42F8A11002883018A11E52FD8
:02400E003A3F37
:00000001FF
