:100000000A128A11F92F00308A000408840A820734
:1000100000346C346534643431343A34203445343B
:100020006E34633465346E346434693464346F34EC
:100030000D340A3400346C346534643431343A3469
:1000400020344134703461346734613464346F3443
:060050000D340A340034F7
:100E5200831203138C1E2E2F2F2F292F981C322F13
:100E6200332F352F181218168C121A080800831601
:100E72000317890188018316031307108710831251
:100E820003130710871033308316031399001812C7
:100E920018158312031398178316031398168312D7
:100EA2000313181683160313181383128C1E5A2F5A
:100EB2005B2FE02F0A128A1129270A128A11831244
:100EC2000313A000E02F0714F201F301742F0C1E8C
:100ED2006B2F6C2F682F7A0899000130F2070318E4
:100EE200F30A0030F3077208013E84000A128A11E5
:100EF20003200A128A11FA007A08031D812F822F19
:100F0200682F562F0710F401F501932F0C1E8A2F1C
:100F12008B2F872F7B0899000130F4070318F50AFD
:100F22000030F5077408133E84000A128A11032068
:100F32000A128A11FB007B08031DA02FA12F872F05
:100F4200562F8714F601F701B22F0C1EA92FAA2FD4
:100F5200A62F7C0899000130F6070318F70A003023
:100F6200F7077608013E84000A128A1103200A124A
:100F72008A11FC007C08031DBF2FC02FA62F562FFD
:100F82008710F801F901D12F0C1EC82FC92FC52FC8
:100F92007D0899000130F8070318F90A0030F907B3
:100FA2007808133E84000A128A1103200A128A1159
:100FB200FD007D08031DDE2FDF2FC52F562F2008D1
:100FC200F000F1017108003A0319E82F562F70085A
:100FD200613A0319642F033A0319832F133A031951
:100FE200A22F063A0319C12F562F0A128A1100287E
:0E0FF20083120313A00183010A128A11382F03
:08400000FF3FFF3FFF3FFF3FC0
:04400E00D220FF3F7E
:00000001FF
