:040000008A11FD2F35
:100F3E00080008008A119F278A118A11A0278A119A
:100F4E0008008A11A1278A1183160313061286122E
:100F5E000613831203130616063083120313A20020
:100F6E001330A100AD30A000A00BBB2FA10BBB2FE7
:100F7E00A20BBB2F000083120313861606308312BA
:100F8E000313A2001330A100AD30A000A00BCD2F93
:100F9E00A10BCD2FA20BCD2F00008312031306172A
:100FAE00063083120313A2001330A100AD30A0004F
:100FBE00A00BDF2FA10BDF2FA20BDF2F0000831260
:100FCE000313061286120613063083120313A200B1
:100FDE001330A100AD30A000A00BF32FA10BF32F07
:100FEE00A20BF32F0000B02F8A11002883018A1163
:020FFE00A82F1A
:02400E003A3F37
:00000001FF
