:100000000A128A11F72F00308A000408840A820736
:100010000034013400340A34003464340034E834E9
:1000200003341034273441344434433420344334CB
:10003000483430343A342034253475340D340A349D
:0200400000348A
:100C8000831203139F149F18462E472E432E1E08CF
:100C9000F100831603131E08F00008007808790499
:100CA0000319532E542E832EFD01FD0A622E0130AE
:100CB0000310F80DF90DFF3E031D582E0130FC0006
:100CC0007C08FD07F91F652E662E572E79087B02DA
:100CD000031D6C2E78087A02031C6F2E702E762E60
:100CE0007808FA027908031CFB03FB0201300310A9
:100CF000F90CF80CFF3E031D772E0130FD02031D99
:100D0000822E832E662E7B08F9007A08F8000800F0
:100D1000F501F6017008710403198F2E902EC72E6D
:100D2000F701F70A9E2E01300310F00DF10DFF3E82
:100D3000031D942E0130F4007408F707F11FA12E53
:100D4000A22E932E01300310F50DF60DFF3E031D6C
:100D5000A32E71087302031DAF2E70087202031CCC
:100D6000B22EB32EBA2E7008F2027108031CF303E0
:100D7000F302751401300310F10CF00CFF3E031D5B
:100D8000BB2E0130F702031DC62EC72EA22E7608F9
:100D9000F1007508F00008008030831603139F00EF
:100DA000C830831203139F001F14333083160313BC
:100DB000990018121815831203139817831603133A
:100DC0009816831203131816831603131813C330CF
:100DD000831203139F050A128A1140260A128A11F0
:100DE0000A128A1140260A128A117108831203130B
:100DF000B4007008B3000B30A0003408A200330820
:100E0000A10035300A128A1136270A128A1183127C
:100E10000313B001B101182F0C1E0F2F102F0C2F30
:100E2000320899000130B0070318B10A0030B10749
:100E30003008353E840083130008B2003208031DD9
:100E4000222F232F0C2F033083120313AF000830FF
:100E5000AE007630AD00AD0B2B2FAE0B2B2FAF0BB2
:100E60002B2F0000E72E0A128A1100288312031389
:100E7000AB002130A700E22F25302C060319412FAB
:100E8000422F4C2F2B0884002C0883138000013044
:100E9000A3002308AB07E22FA601532FC030A30005
:100EA0002308A6046D2F0130A007FF30200784001F
:100EB0000A128A1103200A128A11AC00A300A401AD
:100EC0002408003A0319652FE22F2308003A03197A
:100ED000F22F753A03194E2FE22F2708840083134F
:100EE0000008A800840A0008A9000230A300230813
:100EF000A707AC01AC0A2C08A3002307013E84001D
:100F00000A128A1103200A128A11A4000A128A11F5
:100F100003200A128A11A50025082902031D922F19
:100F2000240828020318952F962F972FA12F013000
:100F3000A3002308AC0705302C06031DA02FA12F0A
:100F40007B2F2C08AA00D92F0A30F8000030F900B6
:100F50002A08A3002307013E84000A128A110320F5
:100F60000A128A11F0000A128A1103200A128A1149
:100F7000F1002908F3002808F2000A128A118826D5
:100F80000A128A117108FB007008FA000A128A110D
:100F90004E260A128A117808303E83120313AC00E1
:100FA0002B0884002C08831380000130A300230841
:100FB000AB07FF30A3002308AA072A0A031DE12F6D
:100FC000E22FA42F0130A007FF30200784000A126F
:100FD0008A1103200A128A11AC002C08031DF12F7C
:100FE000F22F3C2F2B08840083138001080083120A
:100FF0000313B301B401B50183010A128A11CC2E87
:08400000FF3FFF3FFF3FFF3FC0
:04400E00D220FF3F7E
:00000001FF
