:02000000FE2BD5
:1007600008000800B123B0230800B2238316061046
:1007700086100611831206108610061183120614C5
:1007800003308E008A308D0055308C008C0BC62BC8
:100790008D0BC62B8E0BC62BCD2B831286140330EC
:1007A0008E008A308D0055308C008C0BD52B8D0B34
:1007B000D52B8E0BD52BDC2B8312061503308E0028
:1007C0008A308D0055308C008C0BE42B8D0BE42B84
:1007D0008E0BE42BEB2B83120610861006110330D0
:1007E0008E008A308D0055308C008C0BF52B8D0BD4
:1007F000F52B8E0BF52BFC2BBE2B00288301B52B84
:02400E00FA3F77
:00000001FF
